:020000040800F2
:100000000004002047010008E1010008E3010008A6
:10001000E7010008EB010008EF0100080000000004
:10002000000000000000000000000000F3010008D4
:10003000F501000800000000F7010008F9010008C0
:1000400067010008670100086701000867010008F0
:1000500067010008670100086701000867010008E0
:1000600067010008670100086701000867010008D0
:1000700067010008670100086701000867010008C0
:1000800067010008670100086701000867010008B0
:1000900067010008670100086701000867010008A0
:1000A0006701000867010008670100086701000890
:1000B0006701000867010008670100086701000880
:1000C0006701000867010008670100086701000870
:1000D00067010008FF0200086701000867010008C7
:1000E0006701000867010008670100086701000850
:1000F0006701000867010008670100086701000840
:10010000670100086701000867010008670100082F
:10011000670100086701000867010008670100081F
:10012000670100086701000867010008670100080F
:10013000DFF80CD001F040FC0048004775010008D2
:1001400068060020704708488047084981F30888FE
:1001500007480047FEE7FEE7FEE7FEE7FEE7FEE7AB
:10016000FEE7FEE7FEE7FEE745010008680600201F
:1001700031010008002401F06EFB00F03FF800F0B0
:10018000D9F800F0F3F84FF40051144800F0E9FEFC
:1001900000F0DBFB4FF40051104800F0E0FE1BE0E4
:1001A0004FF400510D4800F0DCFEC82000F0FCFACE
:1001B0004FF40051094800F0D2FEC82000F0F4FAD4
:1001C000601CC4B2204601F0A7FB054606232A4660
:1001D0001946002000F012FCE2E700000010014088
:1001E000704700BFFEE700BFFEE700BFFEE700BFAD
:1001F000FEE77047704770477047000000B587B052
:10020000012144F2040001F095F84FF40070ADF8BC
:10021000180018208DF81B0003208DF81A0006A97D
:10022000424800F0F1FD4FF48060ADF81800042062
:100230008DF81B0006A93D4800F0E6FD4FF4E130C3
:1002400002900020ADF80C00ADF80E00ADF81000E3
:10025000ADF814000C20ADF8120002A9344801F0EA
:100260001AF90121324801F084F9012240F22551A6
:100270002F4801F08AF940F225512D4801F06AFA21
:100280004FF4E06000F05CFC25208DF804000120B4
:100290008DF807008DF805008DF8060001A800F024
:1002A00054FC07B000BD10B504462146204801F0BB
:1002B000C8F900BF80211E4801F01AFA0028F9D0C1
:1002C00010BD10B504462021194801F011FA08B9F3
:1002D000002010BD164801F0B8F920700120F8E7A1
:1002E00008B50020009004E09DF80010104801F0CF
:1002F000A8F96846FFF7E5FF0128F5D008BD10B55D
:1003000040F225510A4801F0FFF901280DD10848B3
:1003100001F09BF9C4B2204600F0DCFC00BF802154
:10032000034801F0E5F90028F9D010BD00080140AC
:100330000038014008B50121102000F0FBFF4FF408
:100340000050ADF8000010208DF8030003208DF858
:1003500002006946044800F057FD4FF4005102487E
:1003600000F0FDFD08BD00000010014008B50121AE
:10037000042000F0DFFF01208DF8020010208DF82E
:100380000300F220ADF800006946FE4800F03CFD95
:1003900004208DF803000120ADF8000003208DF843
:1003A00002006946F74800F02FFD08BD70B504460D
:1003B0000E4626B14021F34800F0D1FD03E0402174
:1003C000F04800F0CEFD8021EE4800F0CAFD002587
:1003D00017E01021EB4800F0C4FD14F0800F04D0AA
:1003E0002021E84800F0BBFD03E02021E54800F0B3
:1003F000B8FD1021E34800F0B2FD6006040E681C51
:10040000C5B2082DE5DB8021DE4800F0A8FD4021C3
:10041000DC4800F0A4FD70BD70B504460D4605F142
:10042000B001C8B20021FFF7C1FF102141EA14104A
:100430000021FFF7BBFF04F00F000021FFF7B6FF1C
:1004400070BD2DE9F04180460D461446002712E0AC
:1004500029464046FFF7E0FF002606E0207801210C
:10046000FFF7A4FF641C701CC6B2082EF6DB681CE4
:10047000C5B2781CC7B2022FEADBBDE8F08170B5C7
:100480000024002513E01021BE4800F06AFD60063C
:10049000040E0121BB4800F048FD012801D1601C79
:1004A000C4B21021B74800F05AFD681CC5B2082D2F
:1004B000E9DB204670BD70B50446002517E0102129
:1004C000B04800F04EFD14F0800F04D02021AD485C
:1004D00000F045FD03E02021AA4800F042FD60063F
:1004E000040E1021A74800F03AFD681CC5B2082D83
:1004F000E5DB70BD2DE9F04780460D4616461F46E8
:10050000DDF8209002219F4800F02BFD0320FFF72B
:10051000D2FF4046FFF7CFFF2846FFF7CCFF30461B
:10052000FFF7C9FF002404E0FFF7A9FF3855601C5E
:10053000C4B24C45F8DB0221924800F010FDBDE842
:10054000F0872DE9F04180460D461446002712E061
:1005500029464046FFF760FF002606E0207801218B
:10056000FFF724FF641C701CC6B2102EF6DB681C5B
:10057000C5B2781CC7B2022FEADBBDE8F0812DE9D5
:10058000F0478EB006468A4615460024A6E0285D50
:10059000B02836DB285DF72833DC601C285CA128F6
:1005A0002FDB285DB0385E21484377490860601C26
:1005B000285C00F2AD2009680844734908600846C9
:1005C00000684001086008460068C0F30747084615
:1005D0000088C0F30728084690F80090202006AB5A
:1005E0004A46414600903846FFF784FF06AA514626
:1005F0003046FFF7A6FF06F11000C6B2A01CC4B239
:100600006CE0285DA12835DB285DA32832DC601C66
:10061000285CA1282EDB285DA1385E2148435A4979
:100620000860601C285CA1380968084456490860C5
:10063000084600684001086008460068C0F30747A4
:1006400008460088C0F30728084690F8009020204C
:1006500006AB4A46414600903846FFF74BFF06AAD4
:1006600051463046FFF76DFF06F11000C6B2A01CE0
:10067000C4B233E0285D20282EDB285D7E282BDCE9
:10068000285D20384049086008460068000108607D
:10069000084600683D4908443B4908600846006830
:1006A000C0F3074708460088C0F30728084690F8BB
:1006B0000090102002AB4A46414600903846FFF7B2
:1006C00019FF02AA51463046FFF7BBFE06F10800AB
:1006D000C6B2601CC4B201E0601CC4B2285D002830
:1006E0003FF755AF0EB0BDE8F0872DE9F041064663
:1006F0000F46144639463046FFF78EFE002506E0C9
:1007000020780121FFF752FE641C681CC5B2062D3B
:10071000F6DBBDE8F0812DE9FE4F80468A4615469E
:1007200000243CE0285D202837DB285D7E2834DC6F
:10073000285D20381449086008460068C000086039
:1007400008460068124908440F49086008460068D6
:10075000C0F3074908460088C0F307260846077813
:10076000082001AB3A46314600904846FFF7C2FEEA
:1007700001AA51464046FFF7B8FF08F1060000F015
:10078000FF0807E0000801404004002080CF03007C
:10079000C0BF0300601CC4B201E0601CC4B2285D8D
:1007A0000028BFDCBDE8FE8F002106E042F6E061D4
:1007B00000BF0A00A1F10101FBD10200A0F101007C
:1007C000F4D1704770B5002419E004F1B001C8B24B
:1007D0000021FFF7EBFD00211020FFF7E7FD0021CE
:1007E0000846FFF7E3FD002505E001210020FFF7A3
:1007F000DDFD681CC5B2802DF7DB601CC4B2082C7F
:10080000E3DB70BD10B504463CB90021C820FFF7FA
:10081000CDFD0021A120FFF7C9FD012C07D100214A
:10082000C020FFF7C3FD0021A020FFF7BFFD10BDD2
:1008300010B504461CB90021A620FFF7B7FD012C16
:1008400003D10021A720FFF7B1FD10BD10B5802115
:10085000A54800F084FB0221A34800F080FBC820DB
:10086000FFF7A2FF0021AE20FFF7A0FD0021084600
:10087000FFF79CFD00211020FFF798FD002140208C
:10088000FFF794FD00218120FFF790FD0021CF208C
:10089000FFF78CFD0021A120FFF788FD0021C82073
:1008A000FFF784FD0021A620FFF780FD0021A8208E
:1008B000FFF77CFD00213F20FFF778FD0021D320CA
:1008C000FFF774FD00210846FFF770FD0021D520D9
:1008D000FFF76CFD00218020FFF768FD0021D92083
:1008E000FFF764FD0021F120FFF760FD0021DA2011
:1008F000FFF75CFD00211220FFF758FD0021DB20EF
:10090000FFF754FD00214020FFF750FD002120207B
:10091000FFF74CFD00210220FFF748FD00218D204C
:10092000FFF744FD00211420FFF740FD0021A42023
:10093000FFF73CFD0021A620FFF738FDFFF742FF3F
:100940000021AF20FFF732FD10BD10B5FFF77EFF8D
:100950000020FFF76DFF0020FFF754FFFFF732FF85
:100960004FF47A70FFF720FF60A200210846FFF7DE
:10097000D2FE60A202211020FFF701FE61A2042135
:100980003020FFF7FCFD61A206213020FFF7F7FDC4
:10099000002010BD10B500218D20FFF707FD0021BC
:1009A0001420FFF703FD0021AF20FFF7FFFC10BD6F
:1009B00010B500218D20FFF7F9FC00211020FFF772
:1009C000F5FC0021AE20FFF7F1FC10BD70B5044628
:1009D000002510E029460020FFF71EFD002606E056
:1009E00020780121FFF7E2FC641C701CC6B2802E47
:1009F000F6DB681CC5B2082DECDB70BD2DE9F05F9D
:100A000004468A4690461D4604EBC5000830C4B231
:100A10003F49404600F04AFF834600F082FF81468E
:100A2000A4F11801C8B23BA25146FFF7A8FD002669
:100A300056E00A20B9FBF0F100FB1197B9FBF0F981
:100A4000A4F10800C4B2022E02D1A4F10800C4B27D
:100A50000A2F42D2DFE807F0050B11171D23292FBB
:100A6000353B2DA251462046FFF789FD35E02BA2EC
:100A700051462046FFF783FD2FE029A2514620462C
:100A8000FFF77DFD29E027A251462046FFF777FDBD
:100A900023E025A251462046FFF771FD1DE023A269
:100AA00051462046FFF76BFD17E021A25146204634
:100AB000FFF765FD11E01FA251462046FFF75FFDDD
:100AC0000BE01DA251462046FFF759FD05E01BA291
:100AD00051462046FFF753FD00BF00BF701CC6B251
:100AE000AE42A6DBBDE8F09F00080140616263648E
:100AF00065660000B3CCD0F2D4CBD0D0BDE1CAF84B
:100B000000000000D4D9BCFB000000004279650061
:100B10000000C8422E00000030000000310000003C
:100B200032000000330000003400000035000000F7
:100B300036000000370000003800000039000000D7
:100B400031490143314A1160704770B500210023DB
:100B50000F22C4780CB32D4C246804F4E064C4F56F
:100B6000E064210AC1F10403CA40447804FA03F1A5
:100B70008478144021430901254C0678A155047856
:100B800004F01F050124AC4005786D114FF0E026FC
:100B900006EB8505C5F8004109E0047804F01F055F
:100BA0000124AC401B4D0678761145F8264070BDF7
:100BB000194A0A400243154B1B1F1A60704739B18E
:100BC000124A121D12680243104B1B1D1A6006E0E8
:100BD0000E4A121D126882430C4B1B1D1A6070478F
:100BE000042808D14FF0E021096941F004014FF0D9
:100BF000E022116107E04FF0E021096921F00401D2
:100C00004FF0E022116170470000FA050CED00E0A2
:100C100000E400E080E100E080FFFF1F10B5044623
:100C20002046FFF740FB10BD70B505460E46002478
:100C300007E0285DFFF7F2FF285D00B903E0601CC4
:100C4000C4B2B442F5DB00BF70BD30B503460C46FC
:100C5000002107E0585C655CA84201D0002030BD4F
:100C6000481CC1B2585C18B1605C08B19142F1DB1C
:100C7000585C655CA84201D00020F0E70120EEE757
:100C800010B500201E491F4A1278885407211EA063
:100C9000FFF7CAFF0A211A48FFF7C6FF02211CA06E
:100CA000FFF7C2FF1648407A20B1122119A0FFF7C2
:100CB000BBFF09E00A221CA11148FFF7C6FF18B1CB
:100CC00019211BA0FFF7B0FF00200D4948720D4904
:100CD000087010BD10B50446402C02D1FFF7D0FFBC
:100CE0000CE0074807490978445406480078092869
:100CF00004DA04480078401C0249087010BD000066
:100D00005C04002044040020636D643A5B00000032
:100D10005D0A0000436F6D6D616E64204F766572F1
:100D2000666C6F772100000054656D700000000054
:100D300057656C636F6D650010B50446C549601A50
:100D40008C422FD009DCC448201810D0B0F5806F39
:100D500016D0B0F5006F4AD11BE0B0F5806F2AD0F5
:100D6000B0F5006F30D0B0F5406F40D135E00121D3
:100D7000042000F0F9FA0021042000F0F5FA37E031
:100D80000121082000F0F0FA0021082000F0ECFA20
:100D90002EE00121102000F0E7FA0021102000F0E1
:100DA000E3FA25E00121202000F0DEFA00212020D6
:100DB00000F0DAFA1CE00121402000F0D5FA002111
:100DC000402000F0D1FA13E00121802000F0CCFA9D
:100DD0000021802000F0C8FA0AE00121080200F09A
:100DE000C3FA00214FF4807000F0BEFA00E000BFAB
:100DF00000BF10BD10B50121084600F0B5FA002172
:100E0000012000F0B1FA10BD2DE9F04102460025A5
:100E10000026002000230024002791F803C00CF0D6
:100E20000F0591F803C01CF0100F03D091F802C019
:100E30004CEA050591F800C0BCF1000F31D01468F0
:100E400000202BE04FF0010C0CFA00F3B1F800C0C9
:100E50000CEA03069E4220D183004FF00F0C0CFADF
:100E600003F7BC4305FA03FC4CEA040491F803C001
:100E7000BCF1280F06D14FF0010C0CFA00FCC2F8AF
:100E800014C00AE091F803C0BCF1480F05D14FF03F
:100E9000010C0CFA00FCC2F810C0401C0828D1D389
:100EA0001460B1F800C0BCF1FF0F34DD54680020BD
:100EB0002EE000F1080C4FF0010808FA0CF3B1F82D
:100EC00000C00CEA03069E4221D183004FF00F0CB4
:100ED0000CFA03F7BC4305FA03FC4CEA040491F84E
:100EE00003C0BCF1280F05D100F1080C08FA0CF87A
:100EF000C2F8148091F803C0BCF1480F07D100F18B
:100F0000080C4FF0010808FA0CF8C2F81080401CD9
:100F10000828CED35460BDE8F0814FF6FF71018000
:100F2000022181700421C17070470246002093683D
:100F30000B4201D0012000E0002070470146886884
:100F400080B2704702460020D3680B4201D00120D6
:100F500000E0002070470146C86880B27047016118
:100F60007047416170470AB1016100E0416170471B
:100F7000C16070474FF480320A43826181618261AF
:100F800082698269704702460020344B18684FF628
:100F90008073184040EA02100843304B18607047D5
:100FA0002F49C8617047F0B50A460023002400218C
:100FB00000252A4E7168C0F3034583B200F4401641
:100FC000B6F5401F08D121F07061244E766826F0F6
:100FD0007066224F7E6012E000F48016B6F5801F26
:100FE00006D1032606FA05F4A14341F0706106E03C
:100FF000460D360103FA06F6B14341F0706122B1A5
:10100000460D360103FA06F63143144E7160F0BD09
:1010100030B500228B071C0F0F2303FA04F20F4B8D
:1010200008338C1053F8243093430C4C08348D1043
:1010300044F8253023468C1053F824308C07240FB5
:1010400000FA04F42343054C08348D1044F825308D
:1010500030BD00000014014000F8FEBF0000014058
:1010600000002042DC48006840F00100DA490860D6
:1010700008464068D9490840D74948600846006892
:10108000D7490840D44908600846006820F4802009
:1010900008600846406820F4FE0048600020886030
:1010A0007047CD49096821F48031CB4A116011465F
:1010B000096821F480211160B0F5803F03D0B0F5BC
:1010C000802F0ED106E0C449096841F48031C24A3C
:1010D000116007E0C049096841F4A021BE4A1160CF
:1010E00000E000BF00BF704710B50146002200239A
:1010F00000204A11012A02D1B74C236806E0022AD7
:1011000002D1B54C236A01E0B34C636A01F01F02BF
:10111000012494401C4201D0012000E0002010BDB9
:1011200038B5002000900024002500BF3120FFF7D3
:10113000DBFF05460098401C00901DB90098B0F5F3
:10114000A06FF3D13120FFF7CFFF08B1012400E0F9
:101150000024204638BD014600209F4A106820F038
:10116000F80040EAC100106070479E49086070476F
:1011700002460020984B586820F47C1042EA010394
:101180001843954B5860704796490866704701466A
:101190000020914A506820F00300084350607047D7
:1011A0008D48406800F00C007047014600208A4AD4
:1011B000506820F0F000084350607047014600205E
:1011C000854A506820F4E06008435060704701464B
:1011D0000020814A506820F4605040EAC10050600D
:1011E000704729B17C4A527A02437B4B5A7204E021
:1011F000794A527A8243784B5A7270477A4908602A
:10120000704701460020744A506820F4404008436B
:10121000506070470021754A11706F4A82F82010A3
:10122000012802D0042808D103E001216F4A11707F
:1012300004E005216D4A117000E000BF00BF704757
:101240006B49086070476449096A0143624A116248
:101250007047674944390860704730B50021002263
:10126000002400235C4D6D6805F00C0121B10429B8
:1012700005D0082923D105E05E4D056022E05D4DD3
:1012800005601FE0544D6D6805F47012022505EBF2
:101290009242514D6D6805F480341CB9564D55434A
:1012A00005600BE04C4D6D6815F4003F03D0524DC6
:1012B0005543056002E04F4D5543056002E04D4D3A
:1012C000056000BF00BF444D6D6805F0F0010909DD
:1012D0004A4D6B5C0568DD4045603F4D6D6805F427
:1012E000E061090A454D6B5C4568DD4085603A4D1B
:1012F0006D6805F46051C90A404D6B5C4568DD407E
:10130000C560354D6D6805F44041890B3C4D6B5C03
:10131000C568B5FBF3F5056130BD29B12E4A5269A8
:1013200002432D4B5A6104E02B4A526982432A4BF7
:101330005A61704729B1284A92690243264B9A6143
:1013400004E0254A92698243234B9A61704729B190
:10135000214AD2690243204BDA6104E01E4AD26975
:1013600082431D4BDA61704729B11B4AD2680243A0
:10137000194BDA6004E0184AD2688243164BDA60EF
:10138000704729B1144A12690243134B1A6104E0F1
:10139000114A12698243104B1A617047144940394F
:1013A000086070470F49C86470470B49C87170479F
:1013B0000948406A40F0807007494862704701461A
:1013C0000020054A92680A4201D0012000E0002076
:1013D0007047014988727047001002400000FFF812
:1013E000FFFFF6FE00004242D800424220100240B9
:1013F0008004424200127A0000093D0045040020AA
:101400005504002010B50446D749601A8C422BD0F1
:1014100006DCD648201813D0B0F5806F38D119E01B
:10142000B0F5806F2AD0B0F56C4F31D1012188031F
:10143000FFF79AFF00214FF48040FFF795FF28E067
:1014400001214804FFF79DFF00214FF40030FFF712
:1014500098FF1EE001218804FFF793FF00214FF45D
:101460008020FFF78EFF14E00121C804FFF789FFF9
:1014700000214FF40020FFF784FF0AE00121080556
:10148000FFF77FFF00214FF48010FFF77AFF00E0A5
:1014900000BF00BF10BD2DE9F04786B005460E46DF
:1014A0000024A24600BF00BF00272F462C8A4CF61E
:1014B000FF700440F08804432C82AC894EF6F31090
:1014C0000440B08831890843718908430443AC81E2
:1014D000AC8A4FF6FF400440B0890443AC8201A8B7
:1014E000FFF7BBFEA248874202D1DDF810A001E061
:1014F000DDF80CA00AEBCA0000EB0A103168890085
:10150000B0FBF1F86420B8FBF0F00401200964217D
:1015100001FB1089322000EB0910B0FBF1F000F064
:101520000F0004432C8106B0BDE8F0874FF416513C
:10153000016000218180C18001810C214181002155
:101540008181704710B502460020108A4FF2FF03D8
:1015500018400B884C8823438C882343CC88234332
:101560001843108210BD0021018041808180C1801C
:10157000704721B1828942F40052828104E082895D
:101580004DF6FF731A4082817047F0B50346002480
:101590000026002500201846C1F3421401F01F0662
:1015A000012707FA06F5012C01D10C3004E0022CCA
:1015B00001D1103000E014301AB107682F430760E2
:1015C00002E00768AF430760F0BD1AB1838A0B439E
:1015D000838202E0838A8B4383827047028A4FF6BC
:1015E000F0731A400282028A0A430282704782899B
:1015F0004FF2FF731A40828182890A4382817047C9
:1016000021B1828942F00202828104E082894FF690
:10161000FD731A4082817047028A4FF6DF731A40C9
:101620000282028A0A430282704721B1028A42F48E
:101630008042028204E0028A4BF6FF731A40028263
:101640007047C1F308028280704701468888C0F362
:1016500008007047818941F0010181817047028B48
:10166000D2B20283028B42EA012202837047028BCC
:1016700002F47F420283028B0A430283704721B146
:10168000828A42F02002828204E0828A4FF6DF736F
:101690001A408282704721B1828A42F0100282820F
:1016A00004E0828A4FF6EF731A408282704721B1BC
:1016B000828A42F00802828204E0828A4FF6F7733F
:1016C0001A4082827047828A4FF6FB731A408282E8
:1016D000828A0A438282704721B1828A42F00202E2
:1016E000828204E0828A4FF6FD731A40828270473C
:1016F0000246002013880B4201D0012000E00020A8
:101700007047CA430280704770B502460B460024FA
:10171000002100250020C3F3421503F01F0101261C
:1017200006FA01F1012D02D19689314006E0022D21
:1017300002D1168A314001E0968A31401C120126FE
:1017400006FA04F41688344011B10CB1012000E00F
:10175000002070BD10B5002200230A12012494401D
:10176000A3B2DC43048010BD004C004000BCFFBFAE
:10177000003801400CB500200190009047480068F7
:1017800040F480304549086000BF4448006800F4D8
:10179000003000900198401C0190009818B9019801
:1017A000B0F5A06FF1D13D48006810F4003F02D0C1
:1017B0000120009001E0002000900098012843D112
:1017C0003748006840F01000354908600846006856
:1017D00020F0030008600846006840F0020008603E
:1017E0002E4840682D4948600846406848600846D1
:1017F000406840F4806048600846406820F47C10EF
:1018000048600846406840F4E810486008460068B0
:1018100040F08070086000BF2048006810F0007F32
:10182000FAD01E48406820F003001C494860084672
:10183000406840F00200486000BF1848406800F06F
:101840000C000828F9D101E000BFFEE70CBD10B57F
:10185000FFF790FF10BD10B51048006840F0010080
:101860000E490860084640680E4908400B49486028
:10187000084600680C4908400849086008460068A6
:1018800020F4802008600846406820F4FE0048608C
:1018900000208860FFF7DBFF10BD00000010024051
:1018A000002002400000FFF8FFFFF6FE80EA010280
:1018B00010B502F00043400026D04A0023D04FEA82
:1018C000106101EB1261C0F35600C2F3560240F4FE
:1018D000000042F40002A0FB0220A1F17F014FEAC8
:1018E0000040140401D000F1010050EA124001D47C
:1018F0004000491EC2B20C0604EBD010401C400848
:10190000802A02D003E0002010BD20F00100002951
:1019100000DA0020184310BD96230022114600F083
:101920001DB820F00040C10DC0F3160040F40000C7
:101930007F2901DA00207047962903DCC1F1960166
:10194000C84070479639884070470029A8BF704743
:10195000401C490008BF20F00100704710B4B0FAE5
:1019600080FC00FA0CF050EA010404BF10BC704780
:1019700049B1CCF1200421FA04F411FA0CF118BF9A
:10198000012121430843A3EB0C01CB1D0106000AF2
:10199000002BBEBF002010BC704700EBC3501044AA
:1019A0000029A4BF10BC7047401C490008BF20F0AC
:1019B000010010BC70470000064C074D06E0E068CF
:1019C00040F0010394E8070098471034AC42F6D386
:1019D000FEF7B2FB581A0008781A000870B501EB40
:1019E000020410F8015B15F0070301D110F8013B68
:1019F0002A1106D110F8012B03E010F8016B01F851
:101A0000016B5B1EF9D12B0705D40023521E0FD4A6
:101A100001F8013BFAE710F8013B02F10202A1EBE9
:101A2000030303E013F8015B01F8015B521EF9D5D3
:101A3000A142D6D3002070BD02E008C8121F08C121
:101A4000002AFAD170477047002001E001C1121F3F
:101A5000002AFBD170470000781A0008000000201F
:101A60005C040000DC190008901B00085C040020E6
:101A70000C020000481A00081116060AFE0AC612D7
:101A8000E012F062F84EFE7DBBC7EF01053EC7BB1A
:101A90007DFE300D080CFEFE0C082060FEFE60206E
:101AA0008F7848FE82BABA0309135EAA0101017E4B
:101AB0006CFEFF0301CBFFFF0F39BBECC0C0C0279A
:101AC0001918F92701392975990B6CFFFF0C014989
:101AD0001A0C22E1E1E12701396C0F1F1801FB1FED
:101AE0000F0F092E27013925E2928A86167C828201
:101AF000827C12FE258292AAC65BC0C01111AD0283
:101B00000202FE10190D012B300A24A42E24E42415
:101B10002EA424000A56F84A4C48F8484C4AF81CAF
:101B2000C0201001AB20C00A11300A120A07027F40
:101B300002070A121E0B0A0A0A7F0402560B980AB1
:101B40001F2040404050205F800A11300EFE82422C
:101B5000A29E8A82868AB26202FE1C7F40400319DE
:101B6000012909211809808080BFA5A5A53F041A75
:101B7000BF0C1178087F24243F24247F08912D0175
:101B800002030404300906070809020406080000DD
:0400000508000147A7
:00000001FF
