:020000040800F2
:1000000000040020470100087D0200087F0200086C
:1000100083020008870200088B020008000000002D
:100020000000000000000000000000008F02000837
:1000300091020008000000009302000895020008E9
:1000400067010008670100086701000867010008F0
:1000500067010008670100086701000867010008E0
:1000600067010008670100086701000867010008D0
:1000700067010008670100086701000867010008C0
:1000800067010008670100086701000867010008B0
:1000900067010008670100086701000867010008A0
:1000A0006701000867010008670100086701000890
:1000B0006701000867010008670100086701000880
:1000C0006701000867010008670100086701000870
:1000D000670100089F030008670100086701000826
:1000E0006701000867010008670100086701000850
:1000F0006701000867010008670100086701000840
:10010000670100086701000867010008670100082F
:10011000670100086701000867010008670100081F
:10012000670100086701000867010008670100080F
:10013000DFF80CD002F0F8F900480047750100081C
:1001400098060020704708488047084981F30888CE
:1001500007480047FEE7FEE7FEE7FEE7FEE7FEE7AB
:10016000FEE7FEE7FEE7FEE74501000898060020EF
:1001700031010008002401F068FE00F08FF824A08F
:1001800002F022FA092127A000F09EFD01F076F886
:1001900027A002F019FA00F039FF2BA002F014FAA0
:1001A000442000F019FE2CA002F00EFA00F020F915
:1001B00000F03AF94FF400512B4801F0CCF900F06F
:1001C00014FC4FF40051284801F0C3F927A002F0B5
:1001D000FBF91BE04FF40051234801F0BCF9C820A3
:1001E00001F08CF84FF400511F4801F0B2F9C8201B
:1001F00001F084F8601CC4B2204602F00FF80546F6
:1002000006232A461946002000F048FCE2E70000D9
:100210005553415254B3F5CABCBBAFCDEAB3C92163
:1002200000000000B2E2CAD4CAFDBEDD000000003A
:1002300044656C61795F496E6974B3F5CABCBBAF44
:10024000CDEAB3C921000000494943B3F5CABCBB9C
:10025000AFCDEAB3C921000053485433305F726513
:100260006164CDEAB3C9210000100140B3CCD0F2E3
:10027000D4CBD0D0CDEAB3C900000000704700BF96
:10028000FEE700BFFEE700BFFEE700BFFEE77047E6
:100290007047704710B501F028F810BD00B587B061
:1002A000012144F2040001F03FFB4FF40070ADF86F
:1002B000180018208DF81B0003208DF81A0006A9DD
:1002C000494801F09BF84FF48060ADF81800042015
:1002D0008DF81B0006A9444801F090F84FF4E13076
:1002E00002900020ADF80C00ADF80E00ADF8100043
:1002F000ADF814000C20ADF8120002A93B4801F043
:10030000C4FB0121394801F02EFC012240F22551A5
:10031000364801F034FC40F22551344801F014FD18
:100320004FF4E06000F05CFC25208DF80400012013
:100330008DF807008DF805008DF8060001A800F083
:1003400054FC07B000BD10B504462146274801F013
:1003500072FC00BF8021254801F0C4FC0028F9D0C0
:1003600010BD10B504462021204801F0BBFC08B99F
:10037000002010BD1D4801F062FC20700120F8E74C
:1003800008B50020009004E09DF80010174801F027
:1003900052FC6846FFF7E5FF0128F5D008BD10B50F
:1003A00040F22551114801F0A9FC01280DD10F4858
:1003B00001F045FCC4B2204600F0DCFC00BF802107
:1003C0000A4801F08FFC0028F9D010BD00BF70472B
:1003D00000BF064A128812F0400FFAD0C2B2034B97
:1003E0001B1D1A80704700000008014000380140C2
:1003F00008B50121102001F097FA4FF40050ADF834
:10040000000010208DF8030003208DF802006946DB
:10041000044800F0F3FF4FF40051024801F099F84E
:1004200008BD00000010014008B50121042001F0C2
:100430007BFA01208DF8020010208DF80300F220D5
:10044000ADF800006946FE4800F0D8FF04208DF8A2
:1004500003000120ADF8000003208DF8020069467A
:10046000F74800F0CBFF08BD70B504460E4626B134
:100470004021F34801F06DF803E04021F04801F01D
:100480006AF88021EE4801F066F8002517E0102197
:10049000EB4801F060F814F0800F04D02021E84808
:1004A00001F057F803E02021E54801F054F810214D
:1004B000E34801F04EF86006040E681CC5B2082D32
:1004C000E5DB8021DE4801F044F84021DC4801F002
:1004D00040F870BD70B504460D4605F1B001C8B2D4
:1004E0000021FFF7C1FF102141EA14100021FFF79E
:1004F000BBFF04F00F000021FFF7B6FF70BD2DE930
:10050000F04180460D461446002712E02946404639
:10051000FFF7E0FF002606E020780121FFF7A4FFA7
:10052000641C701CC6B2082EF6DB681CC5B2781CB1
:10053000C7B2022FEADBBDE8F08170B500240025C8
:1005400013E01021BE4801F006F86006040E0121F8
:10055000BB4800F0E4FF012801D1601CC4B21021A7
:10056000B74800F0F6FF681CC5B2082DE9DB20464D
:1005700070BD70B50446002517E01021B04800F0AA
:10058000EAFF14F0800F04D02021AD4800F0E1FF15
:1005900003E02021AA4800F0DEFF6006040E1021CF
:1005A000A74800F0D6FF681CC5B2082DE5DB70BD7A
:1005B0002DE9F04780460D4616461F46DDF820908F
:1005C00002219F4800F0C7FF0320FFF7D2FF4046FB
:1005D000FFF7CFFF2846FFF7CCFF3046FFF7C9FFF4
:1005E000002404E0FFF7A9FF3855601CC4B24C4555
:1005F000F8DB0221924800F0ACFFBDE8F0872DE95E
:10060000F04180460D461446002712E02946404638
:10061000FFF760FF002606E020780121FFF724FFA6
:10062000641C701CC6B2102EF6DB681CC5B2781CA8
:10063000C7B2022FEADBBDE8F0812DE9F0478EB0AA
:1006400006468A4615460024A6E0285DB02836DB1B
:10065000285DF72833DC601C285CA1282FDB285D8F
:10066000B0385E21484377490860601C285C00F27E
:10067000AD200968084473490860084600684001D5
:10068000086008460068C0F3074708460088C0F3C2
:100690000728084690F80090202006AB4A464146BD
:1006A00000903846FFF784FF06AA51463046FFF710
:1006B000A6FF06F11000C6B2A01CC4B26CE0285D13
:1006C000A12835DB285DA32832DC601C285CA1282A
:1006D0002EDB285DA1385E2148435A490860601C22
:1006E000285CA13809680844564908600846006833
:1006F0004001086008460068C0F3074708460088C4
:10070000C0F30728084690F80090202006AB4A4620
:10071000414600903846FFF74BFF06AA5146304647
:10072000FFF76DFF06F11000C6B2A01CC4B233E0A3
:10073000285D20282EDB285D7E282BDC285D2038D4
:1007400040490860084600680001086008460068E3
:100750003D4908443B49086008460068C0F3074724
:1007600008460088C0F30728084690F8009010203B
:1007700002AB4A46414600903846FFF719FF02AAED
:1007800051463046FFF7BBFE06F10800C6B2601CBA
:10079000C4B201E0601CC4B2285D00283FF755AF29
:1007A0000EB0BDE8F0872DE9F04106460F4614462D
:1007B00039463046FFF78EFE002506E020780121FD
:1007C000FFF752FE641C681CC5B2062DF6DBBDE8BF
:1007D000F0812DE9FE4F80468A46154600243CE014
:1007E000285D202837DB285D7E2834DC285D203812
:1007F0001449086008460068C000086008460068A0
:10080000124908440F49086008460068C0F30749C8
:1008100008460088C0F3072608460778082001AB81
:100820003A46314600904846FFF7C2FE01AA5146BB
:100830004046FFF7B8FF08F1060000F0FF0807E0A8
:10084000000801404404002080CF0300C0BF030023
:10085000601CC4B201E0601CC4B2285D0028BFDC8B
:10086000BDE8FE8F70B5002419E004F1B001C8B2F4
:100870000021FFF7F9FD00211020FFF7F5FD002111
:100880000846FFF7F1FD002505E001210020FFF7F4
:10089000EBFD681CC5B2802DF7DB601CC4B2082CD0
:1008A000E3DB70BD10B504463CB90021C820FFF75A
:1008B000DBFD0021A120FFF7D7FD012C07D100218E
:1008C000C020FFF7D1FD0021A020FFF7CDFD10BD16
:1008D00010B504461CB90021A620FFF7C5FD012C68
:1008E00003D10021A720FFF7BFFD10BD10B5802167
:1008F000A54800F02EFE0221A34800F02AFEC820E1
:1009000000F0FCFC0021AE20FFF7AEFD0021084600
:10091000FFF7AAFD00211020FFF7A6FD00214020CF
:10092000FFF7A2FD00218120FFF79EFD0021CF20CF
:10093000FFF79AFD0021A120FFF796FD0021C820B6
:10094000FFF792FD0021A620FFF78EFD0021A820D1
:10095000FFF78AFD00213F20FFF786FD0021D3200D
:10096000FFF782FD00210846FFF77EFD0021D5201C
:10097000FFF77AFD00218020FFF776FD0021D920C6
:10098000FFF772FD0021F120FFF76EFD0021DA2054
:10099000FFF76AFD00211220FFF766FD0021DB2032
:1009A000FFF762FD00214020FFF75EFD00212020BF
:1009B000FFF75AFD00210220FFF756FD00218D2090
:1009C000FFF752FD00211420FFF74EFD0021A42067
:1009D000FFF74AFD0021A620FFF746FDFFF742FF83
:1009E0000021AF20FFF740FD10BD10B5FFF77EFFDF
:1009F0000020FFF76DFF0020FFF754FFFFF732FFE5
:100A00004FF47A7000F07AFC60A200210846FFF7EC
:100A1000E0FE60A202211020FFF70FFE61A2042178
:100A20003020FFF70AFE61A206213020FFF705FE05
:100A3000002010BD10B500218D20FFF715FD00210D
:100A40001420FFF711FD0021AF20FFF70DFD10BDB1
:100A500010B500218D20FFF707FD00211020FFF7C2
:100A600003FD0021AE20FFF7FFFC10BD70B504466A
:100A7000002510E029460020FFF72CFD002606E0A7
:100A800020780121FFF7F0FC641C701CC6B2802E98
:100A9000F6DB681CC5B2082DECDB70BD2DE9F05FFC
:100AA00004468A4690461D4604EBC5000830C4B291
:100AB0003F49404601F0F4F9834601F0B4FB81461A
:100AC000A4F11801C8B23BA25146FFF7B6FD0026BB
:100AD00056E00A20B9FBF0F100FB1197B9FBF0F9E1
:100AE000A4F10800C4B2022E02D1A4F10800C4B2DD
:100AF0000A2F42D2DFE807F0050B11171D23292F1B
:100B0000353B2DA251462046FFF797FD35E02BA23D
:100B100051462046FFF791FD2FE029A2514620467D
:100B2000FFF78BFD29E027A251462046FFF785FD00
:100B300023E025A251462046FFF77FFD1DE023A2BA
:100B400051462046FFF779FD17E021A25146204685
:100B5000FFF773FD11E01FA251462046FFF76DFD20
:100B60000BE01DA251462046FFF767FD05E01BA2E2
:100B700051462046FFF761FD00BF00BF701CC6B2A2
:100B8000AE42A6DBBDE8F09F0008014061626364ED
:100B900065660000B3CCD0F2D4CBD0D0BDE1CAF8AA
:100BA00000000000D4D9BCFB0000000042796500C1
:100BB0000000C8422E00000030000000310000009C
:100BC0003200000033000000340000003500000057
:100BD0003600000037000000380000003900000037
:100BE00031490143314A1160704770B5002100233B
:100BF0000F22C4780CB32D4C246804F4E064C4F5CF
:100C0000E064210AC1F10403CA40447804FA03F104
:100C10008478144021430901254C0678A1550478B5
:100C200004F01F050124AC4005786D114FF0E0265B
:100C300006EB8505C5F8004109E0047804F01F05BE
:100C40000124AC401B4D0678761145F8264070BD56
:100C5000194A0A400243154B1B1F1A60704739B1ED
:100C6000124A121D12680243104B1B1D1A6006E047
:100C70000E4A121D126882430C4B1B1D1A607047EE
:100C8000042808D14FF0E021096941F004014FF038
:100C9000E022116107E04FF0E021096921F0040131
:100CA0004FF0E022116170470000FA050CED00E002
:100CB00000E400E080E100E080FFFF1F10B5044683
:100CC0002046FFF740FB10BD70B505460E460024D8
:100CD00007E0285DFFF7F2FF285D00B903E0601C24
:100CE000C4B2B442F5DB00BF70BD30B503460C465C
:100CF000002107E0585C655CA84201D0002030BDAF
:100D0000481CC1B2585C18B1605C08B19142F1DB7B
:100D1000585C655CA84201D00020F0E70120EEE7B6
:100D200010B500201E491F4A1278885407211EA0C2
:100D3000FFF7CAFF0A211A48FFF7C6FF02211CA0CD
:100D4000FFF7C2FF1648407A20B1122119A0FFF721
:100D5000BBFF09E00A221CA11148FFF7C6FF18B12A
:100D600019211BA0FFF7B0FF00200D4948720D4963
:100D7000087010BD10B50446402C02D1FFF7D0FF1B
:100D80000CE00748074909784454064800780928C8
:100D900004DA04480078401C0249087010BD0000C5
:100DA0006404002048040020636D643A5B00000086
:100DB0005D0A0000436F6D6D616E64204F76657251
:100DC000666C6F772100000054656D7000000000B4
:100DD00057656C636F6D65002DE9F04F8BB004466D
:100DE0004FF0000B0020069063A001F0EDFB00F037
:100DF00026F964A001F0E8FB002141EA4401C8B2F1
:100E000000F0D1F964A001F0DFFB00F05BF92C20C9
:100E100000F0C9F964A001F0D7FB00F053F90620F7
:100E200000F0C1F963A001F0CFFB00F04BF900F036
:100E300028F9322000F062FA61A001F0C5FB00F051
:100E4000FEF8012101EB4401C8B200F0ACF900F05A
:100E500039F908BB012000F0D6F9ADF81C000120DB
:100E600000F0D1F9ADF81E00012000F0CCF9ADF88A
:100E70002000012000F0C7F9ADF82200012000F0A9
:100E8000C2F9ADF82400002000F0BDF9ADF826004D
:100E900000F065F900F0F5F8BDF81E00BDF81C1073
:100EA00040EA01201FFA80F9BDF82400BDF82210A5
:100EB00040EA01201FFA80FA484601F0AFF901909C
:100EC00001F0C5F90022424BCDE9020101F0C5F85D
:100ED0000022404BCDE9040101F031F90746002220
:100EE0003D4B01F0B4F8054601F0C4F98346504685
:100EF00001F094F9039001F0AAF90022374BCDE9F3
:100F0000040101F0AAF805460022324B01F017F95E
:100F1000074601F0AFF906903149584601F0D0F983
:100F20001FD83049584601F0C1F91AD80021069857
:100F300001F0C6F915D82C49069801F0B7F910D878
:100F4000069801F084F905460E46584601F07FF9EF
:100F500007463A460B4625A12848CDE9005601F040
:100F600043FB264926A001F02FFB4FF0000AD14693
:100F70000BB0BDE8F08F00006969635F7374617244
:100F8000740000006969635F73746172745F7375E4
:100F900063636573730000007368745FB7A2CBCDA1
:100FA000B5D8D6B7000000007368745FB3F5CABC4B
:100FB000BBAF31007368745FB3F5CABCBBAF32001E
:100FC000534854B3F5CABCBBAFB3C9B9A62100009E
:100FD00000E06540E0FFEF400080464000005940DF
:100FE0000000A0C10000FA420000C84225362E329F
:100FF000662A432025362E326625250080040020EF
:10100000CEC2CAAAB6C8A3BA25730A0008B5012180
:10101000082000F089FCC020ADF8000010208DF8F9
:10102000030003208DF8020069468F4800F0E6F9BE
:1010300001208E4908608E49C1F89C0108BD10B599
:101040008948006820F070408749086008460068B9
:1010500040F0405008600120864908608449C1F88A
:1010600098014FF0040000F036F900208149086033
:101070004FF0040000F02FF900207D49C1F89801DD
:1010800010BD10B57848006820F0704076490860BF
:101090000846006840F0405008600020734908602E
:1010A0007349C1F89C014FF0040000F014F90120CD
:1010B0006E4908606E49C1F89C014FF0040000F0D1
:1010C0000AF910BD10B500246748006820F0704090
:1010D000654908600846006840F00040086001204B
:1010E0006449086000F0F7F801206149C1F89801EF
:1010F00000F0F1F807E0601CC4B2FA2C03DDFFF742
:10110000C0FF012010BD5C4800680028F3D157499A
:10111000086000BFF6E710B5002054490860524847
:10112000006820F07040504908600846006840F0B0
:10113000405008604FF000004D49C1F89C014FF04D
:10114000020000F0C8F80120484908604FF0020092
:1011500000F0C1F800204649C1F8980110BD10B553
:101160000020424908604048006820F070403E4935
:1011700008600846006840F0405008604FF00100E9
:101180003B49C1F89C014FF0020000F0A4F8012097
:10119000364908604FF0020000F09DF80020344905
:1011A000C1F8980110BD70B504462F48006820F0C2
:1011B00070402D4908600846006840F040500860C3
:1011C00000202A49086005461AE0E009294908601C
:1011D0004FEA44604FEA10644FF0020000F07BF8E1
:1011E00001202349C1F89801022000F074F8002082
:1011F0001E4908604FF0020000F06DF8681CC5B28F
:10120000082DE2DB70BD70B5054600241648006865
:1012100020F07040144908600846006840F0004023
:101220000860002616E00020104908604FF0020018
:1012300000F051F801200E49C1F898016006040E33
:101240000D48006808B1601CC4B2012000F043F8EA
:10125000701CC6B2082EE6DB15B9FFF780FF01E06F
:10126000FFF759FF204670BD000C014098812142D4
:10127000008021429C8121421C81214230B52648B8
:101280000068264AB0FBF2F1B1F1807F01D3012062
:101290001DE021F07F40401E4FF0E02250615017CA
:1012A0000F22002807DA13071D0E1D4B00F00F0454
:1012B000241F1D5503E013071C0E1A4B1C5400BFBE
:1012C00000204FF0E022906107201061002008B15B
:1012D00000BFFEE730BD01B513490098086000BFAC
:1012E000114800680028FBD108BD0F48006820B1F4
:1012F0000D480068401E0C4908607047002106E058
:1013000042F6E06100BF0A00A1F10101FBD1020039
:10131000A0F10100F4D17047DC2E0008A086010086
:1013200018ED00E000E400E04C04002010B5044695
:10133000C549601A8C422FD009DCC448201810D04F
:10134000B0F5806F16D0B0F5006F4AD11BE0B0F554
:10135000806F2AD0B0F5006F30D0B0F5406F40D12B
:1013600035E00121042000F0F9FA0021042000F00A
:10137000F5FA37E00121082000F0F0FA00210820FA
:1013800000F0ECFA2EE00121102000F0E7FA002135
:10139000102000F0E3FA25E00121202000F0DEFA21
:1013A0000021202000F0DAFA1CE00121402000F0AA
:1013B000D5FA0021402000F0D1FA13E0012180206D
:1013C00000F0CCFA0021802000F0C8FA0AE00121E8
:1013D000080200F0C3FA00214FF4807000F0BEFA5A
:1013E00000E000BF00BF10BD10B50121084600F0AD
:1013F000B5FA0021012000F0B1FA10BD2DE9F0414D
:10140000024600250026002000230024002791F832
:1014100003C00CF00F0591F803C01CF0100F03D0AF
:1014200091F802C04CEA050591F800C0BCF1000F2C
:1014300031D0146800202BE04FF0010C0CFA00F3BF
:10144000B1F800C00CEA03069E4220D183004FF0A1
:101450000F0C0CFA03F7BC4305FA03FC4CEA040436
:1014600091F803C0BCF1280F06D14FF0010C0CFA23
:1014700000FCC2F814C00AE091F803C0BCF1480FA8
:1014800005D14FF0010C0CFA00FCC2F810C0401C52
:101490000828D1D31460B1F800C0BCF1FF0F34DDCF
:1014A000546800202EE000F1080C4FF0010808FA03
:1014B0000CF3B1F800C00CEA03069E4221D1830070
:1014C0004FF00F0C0CFA03F7BC4305FA03FC4CEA8F
:1014D000040491F803C0BCF1280F05D100F1080CF9
:1014E00008FA0CF8C2F8148091F803C0BCF1480F58
:1014F00007D100F1080C4FF0010808FA0CF8C2F807
:101500001080401C0828CED35460BDE8F0814FF60F
:10151000FF710180022181700421C1707047024671
:10152000002093680B4201D0012000E000207047AA
:101530000146886880B2704702460020D3680B429B
:1015400001D0012000E0002070470146C86880B249
:10155000704701617047416170470AB1016100E065
:1015600041617047C16070474FF480320A43826125
:101570008161826182698269704702460020344B32
:1015800018684FF68073184040EA02100843304B49
:10159000186070472F49C8617047F0B50A460023AC
:1015A0000024002100252A4E7168C0F3034583B250
:1015B00000F44016B6F5401F08D121F07061244EAA
:1015C000766826F07066224F7E6012E000F4801686
:1015D000B6F5801F06D1032606FA05F4A14341F0B3
:1015E000706106E0460D360103FA06F6B14341F09C
:1015F000706122B1460D360103FA06F63143144EEE
:101600007160F0BD30B500228B071C0F0F2303FA69
:1016100004F20F4B08338C1053F8243093430C4CD6
:1016200008348D1044F8253023468C1053F82430AC
:101630008C07240F00FA04F42343054C08348D1062
:1016400044F8253030BD00000014014000F8FEBF12
:101650000000014000002042DC48006840F001002A
:10166000DA49086008464068D9490840D7494860C7
:1016700008460068D7490840D44908600846006811
:1016800020F4802008600846406820F4FE0048608E
:10169000002088607047CD49096821F48031CB4A29
:1016A00011601146096821F480211160B0F5803F76
:1016B00003D0B0F5802F0ED106E0C449096841F48B
:1016C0008031C24A116007E0C049096841F4A02195
:1016D000BE4A116000E000BF00BF704710B5014670
:1016E0000022002300204A11012A02D1B74C2368AE
:1016F00006E0022A02D1B54C236A01E0B34C636ACA
:1017000001F01F02012494401C4201D0012000E09E
:10171000002010BD38B5002000900024002500BF37
:101720003120FFF7DBFF05460098401C00901DB9F3
:101730000098B0F5A06FF3D13120FFF7CFFF08B1CB
:10174000012400E00024204638BD014600209F4AC5
:10175000106820F0F80040EAC100106070479E4910
:101760000860704702460020984B586820F47C10AF
:1017700042EA01031843954B586070479649086642
:10178000704701460020914A506820F0030008434A
:10179000506070478D48406800F00C00704701466B
:1017A00000208A4A506820F0F000084350607047DB
:1017B00001460020854A506820F4E06008435060EC
:1017C000704701460020814A506820F4605040EA8A
:1017D000C1005060704729B17C4A527A02437B4B6A
:1017E0005A7204E0794A527A8243784B5A727047AF
:1017F0007A490860704701460020744A506820F416
:1018000040400843506070470021754A11706F4A8C
:1018100082F82010012802D0042808D103E0012119
:101820006F4A117004E005216D4A117000E000BF9D
:1018300000BF70476B49086070476449096A0143FB
:10184000624A11627047674944390860704730B591
:1018500000210022002400235C4D6D6805F00C017E
:1018600021B1042905D0082923D105E05E4D05608A
:1018700022E05D4D05601FE0544D6D6805F4701267
:10188000022505EB9242514D6D6805F480341CB978
:10189000564D554305600BE04C4D6D6815F4003F07
:1018A00003D0524D5543056002E04F4D554305604E
:1018B00002E04D4D056000BF00BF444D6D6805F06E
:1018C000F00109094A4D6B5C0568DD4045603F4DFC
:1018D0006D6805F4E061090A454D6B5C4568DD40C3
:1018E00085603A4D6D6805F46051C90A404D6B5CE6
:1018F0004568DD40C560354D6D6805F44041890B94
:101900003C4D6B5CC568B5FBF3F5056130BD29B195
:101910002E4A526902432D4B5A6104E02B4A526908
:1019200082432A4B5A61704729B1284A926902437F
:10193000264B9A6104E0254A92698243234B9A61BF
:10194000704729B1214AD2690243204BDA6104E091
:101950001E4AD26982431D4BDA61704729B11B4A86
:10196000D2680243194BDA6004E0184AD268824315
:10197000164BDA60704729B1144A12690243134BBF
:101980001A6104E0114A12698243104B1A617047D0
:1019900014494039086070470F49C86470470B49C3
:1019A000C87170470948406A40F080700749486232
:1019B000704701460020054A92680A4201D0012082
:1019C00000E0002070470149887270470010024013
:1019D0000000FFF8FFFFF6FE00004242D80042423E
:1019E000201002408004424200127A0000093D00AB
:1019F000500400206004002010B50446D749601A46
:101A00008C422BD006DCD648201813D0B0F5806F5E
:101A100038D119E0B0F5806F2AD0B0F56C4F31D1D4
:101A200001218803FFF79AFF00214FF48040FFF760
:101A300095FF28E001214804FFF79DFF00214FF4A6
:101A40000030FFF798FF1EE001218804FFF793FFA5
:101A500000214FF48020FFF78EFF14E00121C8041D
:101A6000FFF789FF00214FF40020FFF784FF0AE011
:101A700001210805FFF77FFF00214FF48010FFF7D9
:101A80007AFF00E000BF00BF10BD2DE9F04786B02F
:101A900005460E460024A24600BF00BF00272F4681
:101AA0002C8A4CF6FF700440F08804432C82AC89E9
:101AB0004EF6F3100440B088318908437189084319
:101AC0000443AC81AC8A4FF6FF400440B089044324
:101AD000AC8201A8FFF7BBFEA248874202D1DDF825
:101AE00010A001E0DDF80CA00AEBCA0000EB0A1020
:101AF00031688900B0FBF1F86420B8FBF0F0040114
:101B00002009642101FB1089322000EB0910B0FB91
:101B1000F1F000F00F0004432C8106B0BDE8F0871F
:101B20004FF41651016000218180C18001810C2198
:101B3000418100218181704710B502460020108A42
:101B40004FF2FF0318400B884C8823438C882343B3
:101B5000CC8823431843108210BD002101804180AE
:101B60008180C180704721B1828942F40052828114
:101B700004E082894DF6FF731A4082817047F0B508
:101B8000034600240026002500201846C1F3421415
:101B900001F01F06012707FA06F5012C01D10C30D0
:101BA00004E0022C01D1103000E014301AB10768B3
:101BB0002F43076002E00768AF430760F0BD1AB12A
:101BC000838A0B43838202E0838A8B43838270473C
:101BD000028A4FF6F0731A400282028A0A43028296
:101BE000704782894FF2FF731A40828182890A43CB
:101BF0008281704721B1828942F00202828104E031
:101C000082894FF6FD731A4082817047028A4FF62F
:101C1000DF731A400282028A0A430282704721B1AE
:101C2000028A42F48042028204E0028A4BF6FF7389
:101C30001A4002827047C1F3080282807047014651
:101C40008888C0F308007047818941F001018181D3
:101C50007047028BD2B20283028B42EA01220283D6
:101C60007047028B02F47F420283028B0A43028395
:101C7000704721B1828A42F02002828204E0828A87
:101C80004FF6DF731A408282704721B1828A42F098
:101C90001002828204E0828A4FF6EF731A40828239
:101CA000704721B1828A42F00802828204E0828A6F
:101CB0004FF6F7731A4082827047828A4FF6FB73A1
:101CC0001A408282828A0A438282704721B1828AC4
:101CD00042F00202828204E0828A4FF6FD731A40CB
:101CE000828270470246002013880B4201D00120F7
:101CF00000E000207047CA430280704770B502467A
:101D00000B460024002100250020C3F3421503F0F8
:101D10001F01012606FA01F1012D02D196893140F9
:101D200006E0022D02D1168A314001E0968A314048
:101D30001C12012606FA04F41688344011B10CB1C5
:101D4000012000E0002070BD10B5002200230A121F
:101D500001249440A3B2DC43048010BD004C004039
:101D600000BCFFBF003801400CB50020019000907E
:101D70004748006840F480304549086000BF444847
:101D8000006800F4003000900198401C0190009819
:101D900018B90198B0F5A06FF1D13D48006810F472
:101DA000003F02D00120009001E000200090009848
:101DB000012843D13748006840F0100035490860D9
:101DC0000846006820F0030008600846006840F0FC
:101DD000020008602E4840682D4948600846406867
:101DE00048600846406840F48060486008464068A3
:101DF00020F47C1048600846406840F4E8104860D1
:101E00000846006840F08070086000BF2048006805
:101E100010F0007FFAD01E48406820F003001C49F3
:101E200048600846406840F00200486000BF18481B
:101E3000406800F00C000828F9D101E000BFFEE77F
:101E40000CBD10B5FFF790FF10BD10B5104800682D
:101E500040F001000E490860084640680E490840FD
:101E60000B494860084600680C490840084908606A
:101E70000846006820F4802008600846406820F486
:101E8000FE00486000208860FFF7DBFF10BD000007
:101E900000100240002002400000FFF8FFFFF6FEA5
:101EA00080EA010210B502F00043400026D04A004B
:101EB00023D04FEA106101EB1261C0F35600C2F368
:101EC000560240F4000042F40002A0FB0220A1F1FF
:101ED0007F014FEA0040140401D000F1010050EAF4
:101EE000124001D44000491EC2B20C0604EBD010CF
:101EF000401C4008802A02D003E0002010BD20F0E2
:101F00000100002900DA0020184310BD2DE9FE4F22
:101F1000804681EA0300C00F0C46009021F000418A
:101F200023F00045B8EB0200A94105D24046214606
:101F300090461C460B46024623F00040104304D155
:101F40004046214603B0BDE8F08F270DC7F30A00D5
:101F5000C3F30A510290401A0190402866DAC3F395
:101F6000130040F4801B0098924620B10023D2EB6E
:101F7000030A63EB0B0B01985946C0F1400250462F
:101F800000F0EFF906460D4650465946019A00F01A
:101F9000F7F910EB08006141002487EA115284EA46
:101FA000E7731A433BD0009A3AB3019A012A4FEAE9
:101FB000075210DC001B61EB02014FF0004202EA05
:101FC0000752CDE90042001C41F5801132462B46F4
:101FD00000F02BFAB6E7001B61EB0201001C41F593
:101FE000801300185B412018A2F5001747EB03018E
:101FF00040EAD570B6196D4111E06D084FEA36061A
:1020000045EAC0754FEA0752001B61EB0201001C54
:1020100041F5801149084FEA30000019514132461C
:102020002B4603B0BDE8F04F00F0F2B90098012252
:1020300040000023D0EB020263EBE07300982146DE
:102040004FEAE074B8EB000061EB0401E9E783F0CC
:1020500000435BE781F0004158E72DE9FE4F81EA3C
:10206000030404F0004421F0004100944FF0000B01
:1020700023F0004350EA010402D052EA030404D1E1
:102080000020014603B0BDE8F08FC3F30A54C1F34A
:102090000A552C44A4F2F3340194A0FB0254C1F37A
:1020A000130141F48011C3F3130343F4801301FBC4
:1020B000024400FB034E840A970A44EA815447EA2B
:1020C0008357A4FB076802958D0A05FB07854FEA35
:1020D000932C04FB0C542705029D4FEA065847EA4F
:1020E0001637B5EB08056EEB070C870E920E47EA24
:1020F000811742EA8312A7FB0201B6EB0B0164EBE6
:1021000000042B0D43EA0C335E1844EB1C50DA46F6
:102110005146E7FB0201C5F313044FEA0B3343EAD0
:1021200014534FEA0432019C43EA0603A4F10C0461
:102130000294009CCDE900B400F077F9A2E72DE904
:10214000F04D81EA030404F0004B21F000451446F1
:102150004FF0000A23F0004150EA050220D054EA73
:1021600001021DD0C5F30A570246C5F31303C1F39C
:102170001300C1F30A5640F4801543F48013A7EB13
:102180000608101BD64608F2FD3873EB050002D393
:1021900008F1010801E092185B41B8F1000F03DA81
:1021A00000200146BDE8F08D00204FF48011064666
:1021B00084460EE0171B73EB050705D3121B63EB78
:1021C000050306434CEA010C49084FEA3000921817
:1021D0005B4150EA0107EDD152EA030012D082EAD6
:1021E000040083EA0501084303D100224FF00043B5
:1021F00008E0101BAB4102D20122002302E06FF085
:10220000010253101AEB06004CEB085110EB0A00C8
:1022100041EB0B01BDE8F04D00F0FAB89623002227
:10222000114600F0C8B820F00040C10DC0F3160000
:1022300040F400007F2901DA00207047962903DC72
:10224000C1F19601C840704796398840704700F048
:10225000004230F000400AD0C10D01F56071C0F3BA
:10226000160042EA0151C20840071143704700209E
:102270000146704701F0004330B421F0004150EABC
:10228000010206D00A0DA2F56072C1F31301002A03
:1022900002DC30BC00207047440F44EAC104C10096
:1022A000E01830BC00EBC25000F07CB8002801DB25
:1022B000C0F10040002901DBC1F1004181427047BB
:1022C000002801DBC0F10040002901DBC1F1004121
:1022D0008842704730B50B46014600202022012479
:1022E00009E021FA02F59D4205D303FA02F5491BE4
:1022F00004FA02F52844151EA2F10102F1DC30BDFA
:102300002DE9F05F0546002092469B46884606462A
:10231000814640241BE0284641464746224600F0BD
:1023200015F953465A46C01A914110D31146184622
:10233000224600F016F82D1A67EB01084F46224698
:102340000120002100F00DF817EB00094E41201E7E
:10235000A4F10104DFDC484631462A464346BDE885
:10236000F09F202A04DB203A00FA02F10020704797
:102370009140C2F1200320FA03F3194390407047C3
:10238000202A06DBCB17203A41FA02F043EAE07339
:1023900006E041FA02F3D040C2F120029140084326
:1023A000194670470029A8BF7047401C490008BF64
:1023B00020F00100704710B4B0FA80FC00FA0CF075
:1023C00050EA010404BF10BC704749B1CCF12004AD
:1023D00021FA04F411FA0CF118BF0121214308433A
:1023E000A3EB0C01CB1D0106000A002BBEBF002091
:1023F00010BC704700EBC35010440029A4BF10BCB0
:102400007047401C490008BF20F0010010BC704715
:1024100010B5002B08DA401C41F1000192185B4115
:102420001A4301D120F0010010BD2DE9F04D924674
:102430009B4611B1B1FA81F202E0B0FA80F220328B
:102440009046FFF78EFF04460F4640EA0A0041EA35
:102450000B0153465A46084303D120463946BDE88E
:10246000F08D114653EA010015D0C8F140025046E4
:1024700000F06CF805460E46504659464246FFF7B6
:1024800070FF084301D0012000E00020054346EA28
:10249000E0762C4337430A984FEA4453A0EB0800F8
:1024A0004FEAD4240A304FF0000244EA47544FEA7E
:1024B000D72502D500200146D1E701051019694151
:1024C000DDE9084500196941BDE8F04DA0E7C1F319
:1024D0000A52C1F3130140F2FF3341F480119A42D2
:1024E00002DA00200146704740F233439A42A2F2DA
:1024F000334202DC524200F029B8FFF732BF00003D
:1025000030B5002904DB4FF00044404264EB010188
:10251000002B04DB4FF00044524264EB030399426A
:1025200008BF904230BD0000064C074D06E0E06851
:1025300040F0010394E8070098471034AC42F6D30A
:10254000FDF7FAFDF02E0008102F0008202A04DB0A
:10255000203A21FA02F00021704721FA02F3D0401C
:10256000C2F12002914008431946704770B501EB53
:10257000020410F8015B15F0070301D110F8013BCC
:102580002A1106D110F8012B03E010F8016B01F8B5
:10259000016B5B1EF9D12B0705D40023521E0FD40B
:1025A00001F8013BFAE710F8013B02F10202A1EB4E
:1025B000030303E013F8015B01F8015B521EF9D538
:1025C000A142D6D3002070BD0FB4054B10B503A9AE
:1025D000044A029800F0DAF810BC5DF814FB000021
:1025E000D1030008000000200FB4084B10B504A967
:1025F00002AA039800F0CAF8044602A9002000F0DD
:1026000068FC204610BC5DF814FB0000D32E0008C7
:1026100002E008C8121F08C1002AFAD170477047AB
:10262000002001E001C1121F002AFBD17047000009
:102630002DE9FF5FDDE90220010DDDF838B002432E
:1026400010D10F9801244CA2012808D00021009835
:102650000F9BC0E90021C0E90243BDE8FF9F6FEA7C
:102660000B01F4E7A1F2FF3144F6105041430D1481
:102670000F9801280ED0A5EB0B00401C4FF0000472
:102680003E4EDFF8FC90B0F1000AA04605DACAF130
:10269000000717E0CBF10000F0E7074612E0F8076B
:1026A00007D02246334640464946FFF7D6FC8046CF
:1026B00089462246334610461946FFF7CEFC0446AB
:1026C0000E467F10002FEAD1DDE90201BAF1000FBA
:1026D00042464B4602DAFFF7C0FC01E0FFF72FFD50
:1026E00004460E460022274BFFF70AFF03D84FF09F
:1026F000FF30014607E00022234B20463146FFF71A
:1027000005FCFFF7E4FE102409E0002C0ADB0A2296
:102710000023FFF7F5FD019B30321A55641E50EA85
:102720000102F2D1641C019AC4F1110314440F9AFE
:10273000012A09D00122084301D15B450FDD4FF08A
:10274000000205F101050DE0084303D1A3EB0B05E1
:102750006D1E09E000204FF0110B0F9088E701DAA1
:1027600000226D1E002A83D000980F99C0E9023123
:10277000C0E9004571E7000030000000000024407F
:102780000000F03F0000F0430000E03F2DE9FF4F64
:1027900095B09B4689460646002512E2252878D149
:1027A0000024761CF94A2746012105943378203B02
:1027B00001FA03F0104202D00443761CF6E73078A9
:1027C0002A2811D06FF02F033078A0F13002092AA7
:1027D00016D8059A44F0020402EB820203EB42028F
:1027E0001044761C0590EFE759F8042B0592002A57
:1027F00003DA504244F40054059044F00204761C7D
:1028000030782E2816D116F8010F44F004042A2837
:102810000DD06FF02F023078A0F13003092B09D8CA
:1028200007EB870302EB4303C718761CF3E759F85D
:10283000047B761C30786C280FD006DC4C2817D02F
:1028400068280DD06A2814D104E0742810D07A28A2
:102850000FD10DE044F400140AE044F4801401E0C8
:1028600044F440147278824202D1761C04F580143C
:10287000761C307866280BD013DC582877D009DC1A
:10288000002875D04528F6D04628F4D047281AD11C
:102890009FE118E0632835D0642879D0652812D1EB
:1028A00097E1702873D008DC6728F1D069286FD0D1
:1028B0006E280DD06F2806D1B5E073282CD075286E
:1028C00075D0782874D05A46179990476D1C76E1D8
:1028D000C4F30250022809D003280DD0D9F8001003
:1028E00004280DD00D6009F1040968E1D9F8001041
:1028F000EA17C1E90052F6E7D9F800100D80F2E7B7
:102900000D70F0E719F8041B8DF8001000208DF809
:102910000100EA46012003E059F804AB4FF0FF3014
:1029200061074FF0000102D40DE008F10101884673
:10293000B9420FDA8045F8DB1AF808100029F4D103
:1029400008E008F1010188468142FADB1AF8081014
:102950000029F6D105985B46A0EB080721463846CA
:10296000179A00F09EFA284400EB080507E04DE0B6
:102970002BE10DE01AF8010B5A4617999047B8F170
:102980000108F7D25B4621463846179A14E142E027
:102990000A220092C4F302524FF0000A022A08D021
:1029A00059F804CB032A4FEAEC710AD00DE029E074
:1029B0002AE009F1070121F00702F2E802C191467D
:1029C00009E00FFA8CFC4FEAEC71042A03D14FFAAC
:1029D0008CFC4FEAEC71002907DA0A460021DCF191
:1029E000000C61EB02012D2202E0220504D52B220E
:1029F0008DF80420012203E0E20701D02022F7E74E
:102A0000904653E00A2102E010220DE010214FF021
:102A1000000A00910BE010224FF0000A44F0040479
:102A20000827009203E008224FF0000A0092C4F346
:102A30000252022A05D059F804CB0021032A08D0FB
:102A400009E009F1070121F00702F2E802C191460D
:102A500005E01FFA8CFC042A01D10CF0FF0C4FF0AA
:102A60000008220722D5702827D0009B83F010038E
:102A700053EA0A0309D15CEA010206D030228DF83C
:102A800004208DF8050002229046009B83F0080385
:102A900053EA0A030AD15CEA010201D1620705D5B3
:102AA00030228DF804204FF001087F1E582809D0ED
:102AB00037A003900EA8029013E040228DF8042066
:102AC0000122E1E737A0F4E753466046009AFFF79A
:102AD00017FC84460398825C0298A0F101000290E2
:102AE00002705CEA0100EFD1029806A9A1EB000098
:102AF00000F1200A600702D524F4803400E00127A9
:102B0000574502DDA7EB0A0000E0002000EB0A01B8
:102B1000009005984144A0EB01000590E00306D425
:102B20005B462146179A059800F0BBF9054400273B
:102B300006E001A85A46C05D179990476D1C7F1C9E
:102B40004745F6DBE0030CD55B462146179A05980E
:102B500000F0A7F9054404E030205A461799904741
:102B60006D1C0099481E00900029F5DC08E00298D1
:102B700002995A460078491C0291179990476D1C9A
:102B8000BAF10001AAF1010AF1DC6BE109280100A8
:102B900030313233343536373839616263646566D3
:102BA0000000000030313233343536373839414295
:102BB000434445460000000000F060F9054406F17A
:102BC0000106307800287FF4E9AD19B02846BDE849
:102BD000F08F620700D4062709F1070222F0070CE4
:102BE000FCE80223E14603F000485FEA080C02D04B
:102BF0000FF27C2C0DE05FEA045C02D50FF2742C1E
:102C000007E05FEAC47C02D00FF26C2C01E0AFF267
:102C1000700C4FF0FF3823F00043CDF850C065280A
:102C20000CD006DC452809D046281DD047283ED1C7
:102C30003EE0662818D0672839D139E00021112FED
:102C400001DB112000E0781CCDE9000106A90EA8E7
:102C5000FFF7EEFCDDE90F010E9A039100210092CF
:102C600007F1010A04914EE04FF000400097CDE9D2
:102C7000011006A90EA8FFF7DBFCDDE90F020392A5
:102C80000E9B11990022DDF80CA00093049219B953
:102C900007F1010100EB010AB7EB0A0004D4C0F10F
:102CA000FF3007F1010A0490AAEB0700019046E00B
:102CB000012F00DA01270021112F01DD112000E092
:102CC0003846CDE9000106A90EA8FFF7B1FCDDE901
:102CD0000F010E9A0391002104910092BA46210738
:102CE0000CD40399514500DA8A46BAF1010F05DD8B
:102CF000009AAAF10101515C302908D0B84202DAE9
:102D000010F1040F06DA0121CDE9011017E0AAF154
:102D10000101E9E7002805DC049901440491AAEBCC
:102D2000000102E0411C514500DD8A460499A0EBF8
:102D3000010000F1010001904FF0004002902007D7
:102D400004D40198504501DBCDF8048000208DF8B3
:102D50004F0002980DF14F07B0F1004F25D02B2006
:102D60000E9002984FF0020800280CDA40420290C0
:102D70002D200E9007E00A210298FFF7ABFA3031C0
:102D8000029007F8011DB8F10001A8F10108F2DC7A
:102D900002980028EFD1791E0E980870307800F064
:102DA000200040F0450007F8020D12A8A0EB070034
:102DB00000F107081498007800B1012000EB0A0127
:102DC000019801EBE07105984144A0EB0100A0F1EE
:102DD00001000590E00306D45B462146179A05984A
:102DE00000F05FF805441498007820B15A4617990E
:102DF000904705F10105E00323D55B462146179A6C
:102E0000059800F04EF805441BE00498002807DB05
:102E1000DDE90301884203DD0098405C179901E079
:102E2000179930205A46904704986D1C401C049016
:102E30000198401E019004D12E205A4617999047C0
:102E40006D1CBAF10001AAF1010ADEDC05E017F8F9
:102E5000010B5A46179990476D1CB8F10001A8F173
:102E60000108F4DC5B462146179A0598A4E60000A9
:102E70002D0000002B000000200000002DE9F04193
:102E8000044600251E461746880405D406E0394648
:102E90002020B04705F10105641EF8D52846BDE89D
:102EA000F0812DE9F041044600251E469046C803F6
:102EB00001D5302700E02027880405D506E04146EB
:102EC0003846B04705F10105641EF8D52846BDE82F
:102ED000F0810A68531C0B601070704700A24A040E
:102EE00000A24A0400A24A040051250200A24A049A
:102EF000102F000800000020640400006C2500086A
:102F00002830000864040020340200002026000855
:102F10005116060AFE0AC612E012F062F84EFE7D55
:102F2000BBC7EF01053EC7BB7DFE300D080CFEFEA2
:102F30000C082060FEFE60208F7848FE82BABA033B
:102F400009135EAA0101017E6CFEFF0301CBFFFFA6
:102F50000F39BBECC0C0C0271918F92701392975F2
:102F6000990B6CFFFF0C01491A0C22E1E1E12701EA
:102F7000396C0F1F1801FB1F0F0F092E2701392570
:102F8000E2928A86167C8282827C12FE258292AA36
:102F9000C65BC0C01111AD020202FE10190D012B5B
:102FA000300A24A42E24E4242EA424000A56F84A2D
:102FB0004C48F8484C4AF81CC0201001AB20C00A0D
:102FC00011300A120A07027F02070A121E0B0A0AB0
:102FD0000A7F0402560B980A1F2040404050205F91
:102FE000800A11300EFE8242A29E8A82868AB262D6
:102FF00002FE1C7F40400319012909211809808025
:1030000080BFA5A5A53F041ABF0C1178087F242412
:103010003F24247F0801102D01020304040009004D
:08302000060708090204060876
:0400000508000147A7
:00000001FF
