:020000040800F2
:1000000000040020470100084503000847030008DA
:100010004B0300084F0300085303000800000000D2
:10002000000000000000000000000000570300086E
:1000300059030008000000005B0300085D0300088E
:1000400067010008670100086701000867010008F0
:1000500067010008670100086701000867010008E0
:1000600067010008670100086701000867010008D0
:1000700067010008670100086701000867010008C0
:1000800067010008670100086701000867010008B0
:1000900067010008670100086701000867010008A0
:1000A0006701000867010008670100086701000890
:1000B0006701000867010008670100086701000880
:1000C0006701000867010008670100086701000870
:1000D000670100086704000867010008670100085D
:1000E0006701000867010008670100086701000850
:1000F0006701000867010008670100086701000840
:10010000670100086701000867010008670100082F
:10011000670100086701000867010008670100081F
:10012000670100086701000867010008670100080F
:10013000DFF80CD002F0E8F800480047750100082D
:1001400090060020704708488047084981F30888D6
:1001500007480047FEE7FEE7FEE7FEE7FEE7FEE7AB
:10016000FEE7FEE7FEE7FEE74501000890060020F7
:10017000310100081FB500BF02F01FF842A002F0D5
:1001800023F9092145A000F00BFF01F075F946A005
:1001900002F01AF900F0F8FF49A002F015F901F099
:1001A0005FFA01F028FA4AA002F00EF900F084F993
:1001B00000F09EF94FF400514A4801F084FB00F032
:1001C0006BFC00F0E9FC48A20021084600F0ADFB02
:1001D0004AA20421002000F0A8FB4CA20621002026
:1001E00000F0A3FB40F6B83001F086F900F010FCF7
:1001F0004FF400513B4801F064FB43E04FF40051E1
:10020000384801F060FB40F2DC5001F075F94FF422
:100210000051344801F055FB00F0FAFB3FA20421E5
:10022000002000F082FB3FA20621002000F07DFBB1
:100230003EA20021084600F078FB3EA202210020E9
:1002400000F073FB01F0E5F9442000F04AFF0020C4
:1002500001213AA3CDE9003005237F22CDE9021028
:100260000421282000F091FA0020012133A3CDE9D8
:10027000003007237F22CDE902100621282000F05C
:1002800084FA00BFBAE700005553415254B3F5CA8F
:10029000BCBBAFCDEAB3C9210A000000B2E2CAD4A8
:1002A000CAFDBEDD0000000044656C61795F496EE7
:1002B0006974B3F5CABCBBAFCDEAB3C9210A00006B
:1002C000494943B3F5CABCBBAFCDEAB3C9210A0063
:1002D0005347503330B3F5CABCBBAFCDEAB3C921E5
:1002E0000A00000000100140D6C7C4DCD6C6D4EC1A
:1002F000BCBCCAF5D1B5C1B7000000002020204C1D
:100300006F6B48696E2043616E0000002020202042
:10031000C8D9D3FEB3F6C6B70000000054656D70AF
:100320002000000048756D6920000000434F202028
:100330002000000054564F4320000000627566669E
:1003400000000000704700BFFEE700BFFEE700BFEF
:10035000FEE700BFFEE770477047704710B501F039
:10036000C2F810BD00B587B0012144F2040001F0CD
:1003700093FC4FF40070ADF8180018208DF81B00A6
:1003800003208DF81A0006A9494801F0EFF94FF44F
:100390008060ADF8180004208DF81B0006A94448C1
:1003A00001F0E4F94FF4E13002900020ADF80C00C8
:1003B000ADF80E00ADF81000ADF814000C20ADF84B
:1003C000120002A93B4801F018FD0121394801F053
:1003D00082FD012240F22551364801F088FD40F2AD
:1003E0002551344801F068FE4FF4E06000F064FDF0
:1003F00025208DF8040001208DF807008DF80500F8
:100400008DF8060001A800F05CFD07B000BD10B536
:1004100004462146274801F0C6FD00BF802125483B
:1004200001F018FE0028F9D010BD10B504462021B7
:10043000204801F00FFE08B9002010BD1D4801F052
:10044000B6FD20700120F8E708B50020009004E018
:100450009DF80010174801F0A6FD6846FFF7E5FF7C
:100460000128F5D008BD10B540F22551114801F022
:10047000FDFD01280DD10F4801F099FDC4B22046C1
:1004800000F0E4FD00BF80210A4801F0E3FD0028F0
:10049000F9D010BD00BF704700BF064A128812F0A5
:1004A000400FFAD0C2B2034B1B1D1A8070470000E8
:1004B000000801400038014008B50121102001F07A
:1004C000EBFB4FF40050ADF8000010208DF8030056
:1004D00003208DF802006946044801F047F94FF403
:1004E0000051024801F0EDF908BD00000010014084
:1004F00008B50121042001F0CFFB03208DF8020094
:1005000010208DF803008020ADF800006946FE48F9
:1005100001F02CF940F20740ADF800006946FB48B5
:1005200001F024F904208DF803004002ADF800002A
:1005300003208DF802006946F34801F017F908BD61
:100540002DE9F04104460E46174626B10221EF4838
:1005500001F0B7F903E00221EC4801F0B4F90421FD
:10056000EA4801F0B0F9002517E08021E64801F0E3
:10057000AAF914F0800F04D00121E44801F0A1F998
:1005800003E00121E14801F09EF98021DE4801F0FD
:1005900098F96006040E681CC5B2082DE5DB04213D
:1005A000DA4801F08EF90221D84801F08AF9BDE855
:1005B000F08170B504460D46002229462046FFF71B
:1005C000BFFF70BD70B504460D4605F1B001C8B25D
:1005D0000021FFF7EEFF102141EA14100021FFF780
:1005E000E8FF04F00F000021FFF7E3FF70BD2DE9E5
:1005F000F04781460D4614461E464FF0000815E0B0
:1006000029464846FFF7DEFF002707E020783246FC
:100610000121FFF795FF641C781CC7B2082FF5DB9A
:10062000681CC5B208F1010000F0FF08B8F1020F24
:10063000E6DBBDE8F08770B50024002514E08021DA
:10064000B14801F040F96006040E4FF40061AF4874
:1006500001F01DF9012801D1601CC4B28021AA4813
:1006600001F02FF9681CC5B2082DE8DB204670BDEB
:1006700070B50446002517E08021A34801F023F956
:1006800014F0800F04D00121A04801F01AF903E012
:1006900001219E4801F017F96006040E80219A4856
:1006A00001F00FF9681CC5B2082DE5DB70BD2DE91E
:1006B000F04780460D4616461F46DDF820904FF461
:1006C0008061924801F0FFF80320FFF7D1FF404618
:1006D000FFF7CEFF2846FFF7CBFF3046FFF7C8FFF6
:1006E000002404E0FFF7A7FF3855601CC4B24C4556
:1006F000F8DB4FF48061854801F0E3F8BDE8F0874E
:100700002DE9F04781460D4614461E464FF000087D
:1007100015E029464846FFF755FF002707E02078F7
:1007200032460121FFF70CFF641C781CC7B2102F62
:10073000F5DB681CC5B208F1010000F0FF08B8F154
:10074000020FE6DBBDE8F0872DE9F04705460E46CF
:1007500017469846DDF820A0344612E02146284688
:10076000FFF730FFA94608E0524601210020FFF7BD
:10077000E7FE09F1010000F0FF09B945F4DD601C56
:10078000C4B24445EADDBDE8F0872DE9FF4F8DB0E6
:1007900006461746DDE91A5800245FB11C9848B197
:1007A0001D9800EA080000903A463046109B0E99CA
:1007B000FFF7CAFFB2E0285DB02837DB285DF728D5
:1007C00034DC601C285CA12830DB285DB0385E2159
:1007D00048434F490860601C285C00F2AD2009685E
:1007E00008444B4908600846006840010860084614
:1007F0000068C0F3074908460088C0F3072A084686
:1008000090F800B0202005AB5A465146009048466B
:10081000FFF74DFF434605AA30460E99FFF770FFDC
:1008200006F11000C6B2A01CC4B277E0285DA12872
:1008300036DB285DA32833DC601C285CA1282FDB75
:10084000285DA1385E21484331490860601C285C5E
:10085000A138096808442E4908600846006840012C
:10086000086008460068C0F3074908460088C0F3DE
:10087000072A084690F800B0202005AB5A4651469A
:1008800000904846FFF713FF434605AA30460E99ED
:10089000FFF736FF06F11000C6B2A01CC4B23DE05F
:1008A000285D202838DB285D7E2835DC285D20384F
:1008B000174908600846006800010860084600689B
:1008C000144908441249086008460068C0F3074903
:1008D00008460088C0F3072A084690F800B01020A8
:1008E00001AB5A46514600904846FFF7E0FE4346AA
:1008F00001AA30460E99FFF77AFE06F10800C6B24B
:10090000601CC4B20AE0000000080140000C014075
:100910004404002080CF0300601CC4B2285D00287E
:100920003FF749AF11B0BDE8F08F7FB505460E46E1
:1009300014460020CDE900400290034602463146AD
:1009400003902846FFF721FF7FBD2DE9F0410746C0
:10095000884614461D4641463846FFF733FE0026BA
:1009600007E020782A460121FFF7EAFD641C701C8D
:10097000C6B2062EF5DBBDE8F08170B504460D4623
:1009800016460023324629462046FFF7DEFF70BD9B
:100990002DE9FE4F80468A461546002433E0285D47
:1009A00020282EDB285D7E282BDC285D2038F949A5
:1009B000086008460068C000086008460068F649FC
:1009C0000844F449086008460068C0F3074908462F
:1009D0000088C0F3072608460778082001AB3A468E
:1009E000314600904846FFF762FE01AA5146404654
:1009F000FFF7C3FF08F1060000F0FF08601CC4B257
:100A000001E0601CC4B2285D0028C8DCBDE8FE8F90
:100A100070B5002419E004F1B001C8B20021FFF75D
:100A2000C8FD00211020FFF7C4FD00210846FFF794
:100A3000C0FD002505E001210020FFF7BAFD681C7C
:100A4000C5B2802DF7DB601CC4B2082CE3DB70BD9F
:100A500010B504463CB90021C820FFF7AAFD0021CB
:100A6000A120FFF7A6FD012C07D10021C020FFF730
:100A7000A0FD0021A020FFF79CFD10BD10B504468D
:100A80001CB90021A620FFF794FD012C03D1002101
:100A9000A720FFF78EFD10BD10B50421BF4800F060
:100AA00010FF4FF48061BD4800F00BFFC82000F03C
:100AB00023FD0021AE20FFF77CFD00210846FFF753
:100AC00078FD00211020FFF774FD00214020FFF782
:100AD00070FD00218120FFF76CFD0021CF20FFF782
:100AE00068FD0021A120FFF764FD0021C820FFF769
:100AF00060FD0021A620FFF75CFD0021A820FFF784
:100B000058FD00213F20FFF754FD0021D320FFF7BF
:100B100050FD00210846FFF74CFD0021D520FFF7CE
:100B200048FD00218020FFF744FD0021D920FFF778
:100B300040FD0021F120FFF73CFD0021DA20FFF706
:100B400038FD00211220FFF734FD0021DB20FFF7E4
:100B500030FD00214020FFF72CFD00212020FFF771
:100B600028FD00210220FFF724FD00218D20FFF742
:100B700020FD00211420FFF71CFD0021A420FFF719
:100B800018FD0021A620FFF714FDFFF741FF00210B
:100B9000AF20FFF70EFD10BD10B5FFF77DFF002061
:100BA000FFF76CFF0020FFF753FFFFF731FF4FF413
:100BB0007A7000F0A1FC7AA200210846FFF7E8FE57
:100BC00079A202211020FFF7B0FE7BA20421302081
:100BD000FFF7ABFE7AA206213020FFF7A6FE002029
:100BE00010BD10B500218D20FFF7E3FC002114207B
:100BF000FFF7DFFC0021AF20FFF7DBFC10BD10B5D5
:100C000000218D20FFF7D5FC00211020FFF7D1FC3B
:100C10000021AE20FFF7CDFC10BD2DE9F0410446C8
:100C20000E46002511E029460020FFF7CBFC0027E7
:100C300007E0207832460121FFF782FC641C781C13
:100C4000C7B2802FF5DB681CC5B2082DEBDBBDE811
:100C5000F08110B5044600212046FFF7DEFF10BDED
:100C600070B504460D4616460023324629462046F6
:100C7000FFF746FD70BD70B504460D4616460023CD
:100C8000324629462046FFF7B2FC70BD2DE9F05FE1
:100C900004468A4690461D4604EBC5000830C4B29F
:100CA0004849404601F0B4FA834601F0E7FA81462C
:100CB000A4F11801C8B244A25146FFF736FE00263F
:100CC00056E00A20B9FBF0F100FB1197B9FBF0F9EF
:100CD000A4F10800C4B2022E02D1A4F10800C4B2EB
:100CE0000A2F42D2DFE807F0050B11171D23292F29
:100CF000353B36A251462046FFF717FE35E034A2B9
:100D000051462046FFF711FE2FE032A25146204601
:100D1000FFF70BFE29E030A251462046FFF705FE03
:100D200023E02EA251462046FFF7FFFD1DE02CA236
:100D300051462046FFF7F9FD17E02AA2514620460A
:100D4000FFF7F3FD11E028A251462046FFF7EDFD25
:100D50000BE026A251462046FFF7E7FD05E024A25E
:100D600051462046FFF7E1FD00BF00BF701CC6B230
:100D7000AE42A6DBBDE8F09F2DE9F04705468A4666
:100D800017461C4605EBC400C5B2B9464FF0000833
:100D90008EE0000044040020C0BF0300000C0140AE
:100DA0006162636465660000B3CCD0F2D4CBD0D06E
:100DB000BDE1CAF800000000D4D9BCFB000000006F
:100DC000427965000000C8422E000000300000009B
:100DD0003100000032000000330000003400000049
:100DE0003500000036000000370000003800000029
:100DF000390000000A20B9FBF0F100FB1196B9FBA5
:100E0000F0F9A5F10800C5B20A2E4CD2DFE806F0D1
:100E1000050C131A21282F363D44AFF250025146DB
:100E20002846FFF782FD3EE0AFF25C0251462846BD
:100E3000FFF77BFD37E0AFF2640251462846FFF72B
:100E400074FD30E0AFF2700251462846FFF76DFDA9
:100E500029E0AFF2780251462846FFF766FD22E00E
:100E6000AFF2840251462846FFF75FFD1BE0AFF268
:100E70008C0251462846FFF758FD14E0AFF2980265
:100E800051462846FFF751FD0DE0AFF2A002514652
:100E90002846FFF74AFD06E0AFF2AC02514628466D
:100EA000FFF743FD00BF00BF08F1010000F0FF089D
:100EB000A0459FDBBDE8F08731490143314A11600D
:100EC000704770B5002100230F22C4780CB32D4C5D
:100ED000246804F4E064C4F5E064210AC1F1040369
:100EE000CA40447804FA03F184781440214309018C
:100EF000254C0678A155047804F01F050124AC4068
:100F000005786D114FF0E02606EB8505C5F8004128
:100F100009E0047804F01F050124AC401B4D06785D
:100F2000761145F8264070BD194A0A400243154B18
:100F30001B1F1A60704739B1124A121D1268024312
:100F4000104B1B1D1A6006E00E4A121D12688243E8
:100F50000C4B1B1D1A607047042808D14FF0E0218C
:100F6000096941F004014FF0E022116107E04FF000
:100F7000E021096921F004014FF0E022116170477E
:100F80000000FA050CED00E000E400E080E100E084
:100F900080FFFF1F10B504462046FFF738FA10BD4A
:100FA00070B505460E46002407E0285DFFF7F2FF06
:100FB000285D00B903E0601CC4B2B442F5DB00BF99
:100FC00070BD30B503460C46002107E0585C655CF7
:100FD000A84201D0002030BD481CC1B2585C18B1F5
:100FE000605C08B19142F1DB585C655CA84201D0BD
:100FF0000020F0E70120EEE710B500201E491F4A4F
:101000001278885407211EA0FFF7CAFF0A211A4848
:10101000FFF7C6FF02211CA0FFF7C2FF1648407A67
:1010200020B1122119A0FFF7BBFF09E00A221CA181
:101030001148FFF7C6FF18B119211BA0FFF7B0FF39
:1010400000200D4948720D49087010BD10B50446C6
:10105000402C02D1FFF7D0FF0CE007480749097880
:10106000445406480078092804DA04480078401CF3
:101070000249087010BD00007004002048040020E0
:10108000636D643A5B0000005D0A0000436F6D6DA4
:10109000616E64204F766572666C6F772100000088
:1010A00054656D700000000057656C636F6D6500DE
:1010B00010B5044600F081F8002141EA4401C8B2AD
:1010C00000F032F900F0BCF8302000F02DF900F00B
:1010D000B7F8A22000F028F900F0B2F800F08FF87D
:1010E00010BD3EB5044600F068F8002141EA440115
:1010F000C8B200F019F900F0A3F82C2000F014F9A0
:1011000000F09EF8102000F00FF900F099F800F0C0
:1011100076F8322000F0F0F900F04FF8012101EBF1
:101120004401C8B200F000F900F08AF808BB0120C1
:1011300000F033F9ADF80000012000F02EF9ADF811
:101140000200012000F029F9ADF80400012000F0B0
:1011500024F9ADF80600012000F01FF9ADF80800F1
:10116000002000F01AF9ADF80A0000F0B9F800F01C
:1011700046F801203EBD034800687047014880687A
:10118000704700007C04002008B50121082000F011
:1011900083FDC020ADF8000010208DF8030003206F
:1011A0008DF802006946AF4800F0E0FA0120AE4930
:1011B0000860AE49C1F89C0108BD10B5A948006897
:1011C00020F07040A74908600846006840F0405091
:1011D00008600120A6490860A449C1F898014FF0B1
:1011E0000A0000F076F90020A14908604FF00A00DB
:1011F00000F06FF900209D49C1F8980110BD10B5AD
:101200009848006820F070409649086008460068D9
:1012100040F0405008600020934908609349C1F8AD
:101220009C014FF00A0000F054F901208E4908603B
:101230008E49C1F89C014FF00A0000F04AF910BD38
:1012400010B500248748006820F070408549086088
:101250000846006840F000400860012084490860AA
:101260004FF00A0000F035F901208049C1F89801DB
:101270000A2000F02EF907E0601CC4B2FA2C03DD4E
:10128000FFF7BDFF012010BD7A4800680028F3D1A8
:101290007549086000BFF6E710B500207249086084
:1012A0007048006820F070406E4908600846006889
:1012B00040F0405008604FF000006C49C1F89C01BC
:1012C0004FF00A0000F005F90120674908604FF06F
:1012D0000A0000F0FEF800206449C1F8980110BD32
:1012E00010B50020604908605E48006820F070403A
:1012F0005C4908600846006840F0405008604FF0C4
:1013000001005A49C1F89C014FF00A0000F0E1F8D1
:101310000120554908604FF00A0000F0DAF800207B
:101320005249C1F8980110BD70B504464D48006897
:1013300020F070404B4908600846006840F040507B
:101340000860002048490860054620E0E00903D015
:1013500001204749086002E00020454908604FEA43
:1013600044604FEA10644FF00A0000F0B2F8012028
:101370003D4908604FF00A0000F0ABF800203B49FF
:10138000C1F898010A2000F0A4F8681CC5B2082D25
:10139000DCDB0A2000F09DF870BD70B50546002426
:1013A0003048006820F070402E4908600846006808
:1013B00040F000400860002616E000202A4908603E
:1013C0004FF00A0000F085F801202849C1F8980183
:1013D0006006040E2748006808B1601CC4B20A20E9
:1013E00000F077F8701CC6B2082EE6DB15B9FFF7DF
:1013F00077FF01E0FFF750FF204670BD70B505464E
:1014000000241848006820F070401649086008461B
:10141000006840F000400860002618E000201249F3
:1014200008604FF00A0000F054F801200F49C1F89D
:1014300098014FF6FF7000EA44040E48006808B1B6
:10144000601C84B20A2000F044F8701CC6B2082E5A
:10145000E4DB15B9FFF744FF01E0FFF71DFF20466D
:1014600070BD0000000C01409881214200802142A3
:101470009C8121421C81214230B526480068264AC1
:10148000B0FBF2F1B1F1807F01D301201DE021F02A
:101490007F40401E4FF0E022506150170F2200287D
:1014A00007DA13071D0E1D4B00F00F04241F1D55F6
:1014B00003E013071C0E1A4B1C5400BF00204FF012
:1014C000E022906107201061002008B100BFFEE714
:1014D00030BD01B513490098086000BF114800688D
:1014E0000028FBD108BD0F48006820B10D480068F6
:1014F000401E0C4908607047002106E042F6E0619A
:1015000000BF0A00A1F10101FBD10200A0F101001E
:10151000F4D17047C8260008A086010018ED00E04D
:1015200000E400E04C04002010B5FFF746FEB020B8
:10153000FFF7FAFE10BD10B5FFF73FFEB120FFF731
:10154000F3FE10BD70B505460C46FFF7EDFFFFF743
:1015500077FE2846FFF7E8FEFFF772FE2046FFF70A
:10156000E3FEFFF76DFEFFF74AFE4FF49670FFF7BC
:10157000C3FF70BD10B5FFF720FEB120FFF7D4FE0A
:10158000FFF75EFE0120FFF708FF0446240201205A
:10159000FFF703FF04440120FFF7FFFE24020120B0
:1015A000FFF7FBFE044424020120FFF7F6FE04448B
:1015B0000020FFF7F2FEFFF722FE204610BD10B517
:1015C000FFF7FBFDB120FFF7AFFEFFF739FE01206B
:1015D000FFF7E3FE04464FF6FF7000EA0424012003
:1015E000FFF7DBFE204484B20020FFF7D6FEFFF7B2
:1015F00006FE204610BD10B503212020FFF7A2FFF4
:10160000FFF7FDFD00201D4908706420FFF774FFFF
:1016100010BD10B508212020FFF794FFFFF7AAFFA7
:101620000446200C16490860A0B216490860134809
:10163000007868B912480068B0F5C87F02D1084642
:10164000006818B101200D49087001E0002010BDAC
:101650000120FCE70A48006870470A4800687047A4
:1016600010B5002432212020FFF76CFFFFF7A7FF01
:101670000446214604A000F0A7FE10BD5804002037
:1016800050040020540400200A534750D7D4BCEC27
:10169000B7B5BBD83A25580A0000000010B504467B
:1016A000C549601A8C422FD009DCC448201810D0DC
:1016B000B0F5806F16D0B0F5006F4AD11BE0B0F5E1
:1016C000806F2AD0B0F5006F30D0B0F5406F40D1B8
:1016D00035E00121042000F0F9FA0021042000F097
:1016E000F5FA37E00121082000F0F0FA0021082087
:1016F00000F0ECFA2EE00121102000F0E7FA0021C2
:10170000102000F0E3FA25E00121202000F0DEFAAD
:101710000021202000F0DAFA1CE00121402000F036
:10172000D5FA0021402000F0D1FA13E001218020F9
:1017300000F0CCFA0021802000F0C8FA0AE0012174
:10174000080200F0C3FA00214FF4807000F0BEFAE6
:1017500000E000BF00BF10BD10B50121084600F039
:10176000B5FA0021012000F0B1FA10BD2DE9F041D9
:10177000024600250026002000230024002791F8BF
:1017800003C00CF00F0591F803C01CF0100F03D03C
:1017900091F802C04CEA050591F800C0BCF1000FB9
:1017A00031D0146800202BE04FF0010C0CFA00F34C
:1017B000B1F800C00CEA03069E4220D183004FF02E
:1017C0000F0C0CFA03F7BC4305FA03FC4CEA0404C3
:1017D00091F803C0BCF1280F06D14FF0010C0CFAB0
:1017E00000FCC2F814C00AE091F803C0BCF1480F35
:1017F00005D14FF0010C0CFA00FCC2F810C0401CDF
:101800000828D1D31460B1F800C0BCF1FF0F34DD5B
:10181000546800202EE000F1080C4FF0010808FA8F
:101820000CF3B1F800C00CEA03069E4221D18300FC
:101830004FF00F0C0CFA03F7BC4305FA03FC4CEA1B
:10184000040491F803C0BCF1280F05D100F1080C85
:1018500008FA0CF8C2F8148091F803C0BCF1480FE4
:1018600007D100F1080C4FF0010808FA0CF8C2F893
:101870001080401C0828CED35460BDE8F0814FF69C
:10188000FF710180022181700421C17070470246FE
:10189000002093680B4201D0012000E00020704737
:1018A0000146886880B2704702460020D3680B4228
:1018B00001D0012000E0002070470146C86880B2D6
:1018C000704701617047416170470AB1016100E0F2
:1018D00041617047C16070474FF480320A438261B2
:1018E0008161826182698269704702460020344BBF
:1018F00018684FF68073184040EA02100843304BD6
:10190000186070472F49C8617047F0B50A46002338
:101910000024002100252A4E7168C0F3034583B2DC
:1019200000F44016B6F5401F08D121F07061244E36
:10193000766826F07066224F7E6012E000F4801612
:10194000B6F5801F06D1032606FA05F4A14341F03F
:10195000706106E0460D360103FA06F6B14341F028
:10196000706122B1460D360103FA06F63143144E7A
:101970007160F0BD30B500228B071C0F0F2303FAF6
:1019800004F20F4B08338C1053F8243093430C4C63
:1019900008348D1044F8253023468C1053F8243039
:1019A0008C07240F00FA04F42343054C08348D10EF
:1019B00044F8253030BD00000014014000F8FEBF9F
:1019C0000000014000002042DC48006840F00100B7
:1019D000DA49086008464068D9490840D749486054
:1019E00008460068D7490840D4490860084600689E
:1019F00020F4802008600846406820F4FE0048601B
:101A0000002088607047CD49096821F48031CB4AB5
:101A100011601146096821F480211160B0F5803F02
:101A200003D0B0F5802F0ED106E0C449096841F417
:101A30008031C24A116007E0C049096841F4A02121
:101A4000BE4A116000E000BF00BF704710B50146FC
:101A50000022002300204A11012A02D1B74C23683A
:101A600006E0022A02D1B54C236A01E0B34C636A56
:101A700001F01F02012494401C4201D0012000E02B
:101A8000002010BD38B5002000900024002500BFC4
:101A90003120FFF7DBFF05460098401C00901DB980
:101AA0000098B0F5A06FF3D13120FFF7CFFF08B158
:101AB000012400E00024204638BD014600209F4A52
:101AC000106820F0F80040EAC100106070479E499D
:101AD0000860704702460020984B586820F47C103C
:101AE00042EA01031843954B5860704796490866CF
:101AF000704701460020914A506820F003000843D7
:101B0000506070478D48406800F00C0070470146F7
:101B100000208A4A506820F0F00008435060704767
:101B200001460020854A506820F4E0600843506078
:101B3000704701460020814A506820F4605040EA16
:101B4000C1005060704729B17C4A527A02437B4BF6
:101B50005A7204E0794A527A8243784B5A7270473B
:101B60007A490860704701460020744A506820F4A2
:101B700040400843506070470021754A11706F4A19
:101B800082F82010012802D0042808D103E00121A6
:101B90006F4A117004E005216D4A117000E000BF2A
:101BA00000BF70476B49086070476449096A014388
:101BB000624A11627047674944390860704730B51E
:101BC00000210022002400235C4D6D6805F00C010B
:101BD00021B1042905D0082923D105E05E4D056017
:101BE00022E05D4D05601FE0544D6D6805F47012F4
:101BF000022505EB9242514D6D6805F480341CB905
:101C0000564D554305600BE04C4D6D6815F4003F93
:101C100003D0524D5543056002E04F4D55430560DA
:101C200002E04D4D056000BF00BF444D6D6805F0FA
:101C3000F00109094A4D6B5C0568DD4045603F4D88
:101C40006D6805F4E061090A454D6B5C4568DD404F
:101C500085603A4D6D6805F46051C90A404D6B5C72
:101C60004568DD40C560354D6D6805F44041890B20
:101C70003C4D6B5CC568B5FBF3F5056130BD29B122
:101C80002E4A526902432D4B5A6104E02B4A526995
:101C900082432A4B5A61704729B1284A926902430C
:101CA000264B9A6104E0254A92698243234B9A614C
:101CB000704729B1214AD2690243204BDA6104E01E
:101CC0001E4AD26982431D4BDA61704729B11B4A13
:101CD000D2680243194BDA6004E0184AD2688243A2
:101CE000164BDA60704729B1144A12690243134B4C
:101CF0001A6104E0114A12698243104B1A6170475D
:101D000014494039086070470F49C86470470B494F
:101D1000C87170470948406A40F0807007494862BE
:101D2000704701460020054A92680A4201D001200E
:101D300000E000207047014988727047001002409F
:101D40000000FFF8FFFFF6FE00004242D8004242CA
:101D5000201002408004424200127A0000093D0037
:101D6000590400206904002010B50446D749601AC0
:101D70008C422BD006DCD648201813D0B0F5806FEB
:101D800038D119E0B0F5806F2AD0B0F56C4F31D161
:101D900001218803FFF79AFF00214FF48040FFF7ED
:101DA00095FF28E001214804FFF79DFF00214FF433
:101DB0000030FFF798FF1EE001218804FFF793FF32
:101DC00000214FF48020FFF78EFF14E00121C804AA
:101DD000FFF789FF00214FF40020FFF784FF0AE09E
:101DE00001210805FFF77FFF00214FF48010FFF766
:101DF0007AFF00E000BF00BF10BD2DE9F04786B0BC
:101E000005460E460024A24600BF00BF00272F460D
:101E10002C8A4CF6FF700440F08804432C82AC8975
:101E20004EF6F3100440B0883189084371890843A5
:101E30000443AC81AC8A4FF6FF400440B0890443B0
:101E4000AC8201A8FFF7BBFEA248874202D1DDF8B1
:101E500010A001E0DDF80CA00AEBCA0000EB0A10AC
:101E600031688900B0FBF1F86420B8FBF0F00401A0
:101E70002009642101FB1089322000EB0910B0FB1E
:101E8000F1F000F00F0004432C8106B0BDE8F087AC
:101E90004FF41651016000218180C18001810C2125
:101EA000418100218181704710B502460020108ACF
:101EB0004FF2FF0318400B884C8823438C88234340
:101EC000CC8823431843108210BD0021018041803B
:101ED0008180C180704721B1828942F400528281A1
:101EE00004E082894DF6FF731A4082817047F0B595
:101EF000034600240026002500201846C1F34214A2
:101F000001F01F06012707FA06F5012C01D10C305C
:101F100004E0022C01D1103000E014301AB107683F
:101F20002F43076002E00768AF430760F0BD1AB1B6
:101F3000838A0B43838202E0838A8B4383827047C8
:101F4000028A4FF6F0731A400282028A0A43028222
:101F5000704782894FF2FF731A40828182890A4357
:101F60008281704721B1828942F00202828104E0BD
:101F700082894FF6FD731A4082817047028A4FF6BC
:101F8000DF731A400282028A0A430282704721B13B
:101F9000028A42F48042028204E0028A4BF6FF7316
:101FA0001A4002827047C1F30802828070470146DE
:101FB0008888C0F308007047818941F00101818160
:101FC0007047028BD2B20283028B42EA0122028363
:101FD0007047028B02F47F420283028B0A43028322
:101FE000704721B1828A42F02002828204E0828A14
:101FF0004FF6DF731A408282704721B1828A42F025
:102000001002828204E0828A4FF6EF731A408282C5
:10201000704721B1828A42F00802828204E0828AFB
:102020004FF6F7731A4082827047828A4FF6FB732D
:102030001A408282828A0A438282704721B1828A50
:1020400042F00202828204E0828A4FF6FD731A4057
:10205000828270470246002013880B4201D0012083
:1020600000E000207047CA430280704770B5024606
:102070000B460024002100250020C3F3421503F085
:102080001F01012606FA01F1012D02D19689314086
:1020900006E0022D02D1168A314001E0968A3140D5
:1020A0001C12012606FA04F41688344011B10CB152
:1020B000012000E0002070BD10B5002200230A12AC
:1020C00001249440A3B2DC43048010BD004C0040C6
:1020D00000BCFFBF003801400CB50020019000900B
:1020E0004748006840F480304549086000BF4448D4
:1020F000006800F4003000900198401C01900098A6
:1021000018B90198B0F5A06FF1D13D48006810F4FE
:10211000003F02D00120009001E0002000900098D4
:10212000012843D13748006840F010003549086065
:102130000846006820F0030008600846006840F088
:10214000020008602E4840682D49486008464068F3
:1021500048600846406840F480604860084640682F
:1021600020F47C1048600846406840F4E81048605D
:102170000846006840F08070086000BF2048006892
:1021800010F0007FFAD01E48406820F003001C4980
:1021900048600846406840F00200486000BF1848A8
:1021A000406800F00C000828F9D101E000BFFEE70C
:1021B0000CBD10B5FFF790FF10BD10B510480068BA
:1021C00040F001000E490860084640680E4908408A
:1021D0000B494860084600680C49084008490860F7
:1021E0000846006820F4802008600846406820F413
:1021F000FE00486000208860FFF7DBFF10BD000094
:1022000000100240002002400000FFF8FFFFF6FE31
:1022100080EA010210B502F00043400026D04A00D7
:1022200023D04FEA106101EB1261C0F35600C2F3F4
:10223000560240F4000042F40002A0FB0220A1F18B
:102240007F014FEA0040140401D000F1010050EA80
:10225000124001D44000491EC2B20C0604EBD0105B
:10226000401C4008802A02D003E0002010BD20F06E
:102270000100002900DA0020184310BD20F00040C2
:10228000C10DC0F3160040F400007F2901DA0020E0
:102290007047962903DCC1F19601C8407047963912
:1022A000884070472DE9F05F0546002092469B4626
:1022B00088460646814640241BE02846414647465C
:1022C000224600F042F853465A46C01A914110D3B4
:1022D00011461846224600F029F82D1A67EB01082E
:1022E0004F4622460120002100F020F817EB00099C
:1022F0004E41201EA4F10104DFDC484631462A4647
:102300004346BDE8F09F0000064C074D06E0E0683C
:1023100040F0010394E8070098471034AC42F6D32C
:10232000FDF70AFFDC260008FC260008202A04DB53
:10233000203A00FA02F1002070479140C2F12003D8
:1023400020FA03F3194390407047202A04DB203A17
:1023500021FA02F00021704721FA02F3D040C2F1C5
:102360002002914008431946704770B501EB020402
:1023700010F8015B15F0070301D110F8013B2A1199
:1023800006D110F8012B03E010F8016B01F8016B86
:102390005B1EF9D12B0705D40023521E0FD401F880
:1023A000013BFAE710F8013B02F10202A1EB030343
:1023B00003E013F8015B01F8015B521EF9D5A1425D
:1023C000D6D3002070BD00000FB4054B10B503A993
:1023D000044A029800F018F810BC5DF814FB0000E5
:1023E000990400080000002002E008C8121F08C17C
:1023F000002AFAD170477047002001E001C1121F86
:10240000002AFBD1704700002DE9FF4F8DB09B469D
:102410000F460446002638E1252801D00F9959E0DF
:102420000025641C9D49A84601222378203B02FA1E
:1024300003F0084202D00543641CF6E720782E28FA
:1024400017D114F8010F45F004052A280ED06FF0BB
:102450002F022078A0F1300109290AD808EB880161
:1024600002EB410100EB0108641CF2E757F8048B12
:10247000641C20786C280DD004DC4C2812D06A280B
:1024800011D104E074280DD07A280CD10AE045F46B
:10249000001507E0617845F48015814202D1641C83
:1024A00005F58015641C2278692A46D008DC002ACC
:1024B00070D0582A69D0632A11D0642A08D13CE030
:1024C000702A69D0732A14D0752A5CD0782A5CD01F
:1024D0000F9910465A46904706F10106D4E017F8C6
:1024E000040B8DF8000000208DF80100E946012062
:1024F00003E057F8049B4FF0FF3069074FF00005E9
:1025000001D40AE06D1C45450DDA8542FADB19F865
:1025100005100029F6D106E06D1C8542FCDB19F898
:1025200005100029F8D12E4404E019F8010B5A4691
:102530000F9990476D1EF8D2A6E00A200021CDE940
:102540000801C5F3025002280BD001CFC1170029A2
:102550000EDA4FF0000CD0EB0C006CEB01012D23D8
:1025600009E007F1070727F00707F7E80201EEE7A0
:102570002B0504D52B238DF82830012330E0EB0701
:102580002ED02023F7E70A2000E010200021CDE91B
:10259000080109E07DE0FFE71020002145F0040577
:1025A000CDE908014FF00808C5F3025002281BD0FE
:1025B00001CF00214FF0000A2B0712D5702A19D045
:1025C000DDE908C38CF0100C5CEA030C09D150EA79
:1025D000010306D030238DF828308DF829200223FE
:1025E0009A46582A10D00AE0FF1D27F00707F7E89F
:1025F0000201DFE740228DF828204FF0010A28A2CF
:102600000DF120090B9209E02AA2F9E7DDE9082380
:10261000FFF748FE0B9B9B5C09F8013D50EA010265
:10262000F4D1ADEB090000F120000890680701D457
:102630004FF001080899884502DDA8EB010000E091
:1026400000208046002506E00AA85A46405D0F9902
:102650009047761C6D1C5545F6DB04E030205A4649
:102660000F999047761CB8F10001A8F10108F5DC3C
:1026700005E019F8010B5A460F999047761C089906
:10268000481E08900029F4DC641C207800287FF4A0
:10269000C3AE11B03046BDE8F08F0000092801003C
:1026A00030313233343536373839616263646566C8
:1026B000000000003031323334353637383941428A
:1026C000434445460000000000A24A0400A24A0418
:1026D00000A24A040051250200A24A04FC26000878
:1026E00000000020700400006A230008142800087D
:1026F0007004002020020000F82300085116060A8A
:10270000FE0AC612E012F062F84EFE7DBBC7EF0172
:10271000053EC7BB7DFE300D080CFEFE0C08206098
:10272000FEFE60208F7848FE82BABA0309135EAAC3
:102730000101017E6CFEFF0301CBFFFF0F39BBECF3
:10274000C0C0C0271918F92701392975990B6CFFEA
:10275000FF0C01491A0C22E1E1E12701396C0F1F3E
:102760001801FB1F0F0F092E27013925E2928A86D7
:10277000167C8282827C12FE258292AAC65BC0C031
:102780001111AD020202FE10190D012B300A24A412
:102790002E24E4242EA424000A56F84A4C48F84873
:1027A0004C4AF81CC0201001AB20C00A11300A129C
:1027B0000A07027F02070A121E0B0A0A0A7F040296
:1027C000560B980A1F2040404050205F800A11306D
:1027D0000EFE8242A29E8A82868AB26202FE1C7F1E
:1027E00040400319012909211809808080BFA5A54F
:1027F000A53F041ABF0C1178087F24243F24247FAE
:102800000801192D01020304043009060708090212
:0428100004060800B2
:0400000508000147A7
:00000001FF
