:020000040800F2
:100000000004002047010008CD010008CF010008CE
:10001000D3010008D7010008DB0100080000000040
:10002000000000000000000000000000DF010008E8
:10003000E101000800000000E3010008E5010008FC
:1000400067010008670100086701000867010008F0
:1000500067010008670100086701000867010008E0
:1000600067010008670100086701000867010008D0
:1000700067010008670100086701000867010008C0
:1000800067010008670100086701000867010008B0
:1000900067010008670100086701000867010008A0
:1000A0006701000867010008670100086701000890
:1000B0006701000867010008670100086701000880
:1000C0006701000867010008670100086701000870
:1000D0006701000867010008670100086701000860
:1000E0006701000867010008670100086701000850
:1000F0006701000867010008670100086701000840
:10010000670100086701000867010008670100082F
:10011000670100086701000867010008670100081F
:10012000670100086701000867010008670100080F
:10013000DFF80CD001F0D8FA00480047750100083C
:1001400058060020704708488047084981F308880E
:1001500007480047FEE7FEE7FEE7FEE7FEE7FEE7AB
:10016000FEE7FEE7FEE7FEE745010008580600202F
:100170003101000801F043FA00F036F800F09EF873
:1001800000F0B8F84FF400510F4800F0BEFD00F049
:10019000ABFB4FF400510C4800F0B5FD13E04FF4F9
:1001A0000051094800F0B1FDC82000F0CCFA00F081
:1001B00071F84FF40051044800F0A5FDC82000F08C
:1001C000C2FA00F067F8EAE700100140704700BF8C
:1001D000FEE700BFFEE700BFFEE700BFFEE7704797
:1001E000704770477047000000B585B0012144F2A8
:1001F000040000F073FF4FF40070ADF810001820F9
:100200008DF8130003208DF8120004A9294800F08E
:10021000CFFC4FF48060ADF8100004208DF813007F
:1002200004A9244800F0C4FC4FF4E1300090002001
:10023000ADF80400ADF80600ADF80800ADF80C000C
:100240000C20ADF80A0069461B4800F0F8FF0121B8
:10025000194801F062F805B000BD10B5044621460A
:10026000154801F0C2F800BF8021134801F014F9CD
:100270000028F9D010BD10B5044620210E4801F029
:100280000BF908B9002010BD0B4801F0B2F820703E
:100290000120F8E708B50020009004E09DF8001068
:1002A000054801F0A2F86846FFF7E5FF0128F5D000
:1002B00008BD0000000801400038014008B50121D8
:1002C000102000F00BFF4FF40050ADF8000010209C
:1002D0008DF8030003208DF802006946044800F001
:1002E00067FC4FF40051024800F00DFD08BD00000E
:1002F0000010014008B50121042000F0EFFE0120AC
:100300008DF8020010208DF80300F220ADF80000F7
:100310006946FE4800F04CFC04208DF803000120E3
:10032000ADF8000003208DF802006946F74800F0A0
:100330003FFC08BD70B504460E4626B14021F34887
:1003400000F0E1FC03E04021F04800F0DEFC8021F9
:10035000EE4800F0DAFC002517E01021EB4800F031
:10036000D4FC14F0800F04D02021E84800F0CBFC2E
:1003700003E02021E54800F0C8FC1021E34800F02C
:10038000C2FC6006040E681CC5B2082DE5DB8021A6
:10039000DE4800F0B8FC4021DC4800F0B4FC70BD41
:1003A00070B504460D4605F1B001C8B20021FFF753
:1003B000C1FF102141EA14100021FFF7BBFF04F038
:1003C0000F000021FFF7B6FF70BD2DE9F041804618
:1003D0000D461446002712E029464046FFF7E0FF8D
:1003E000002606E020780121FFF7A4FF641C701CA2
:1003F000C6B2082EF6DB681CC5B2781CC7B2022F45
:10040000EADBBDE8F08170B5002400251AE0102178
:10041000BE4800F07AFC6006040E0121BB4800F0E3
:1004200058FC012805D12320FFF717FF601CC4B238
:1004300002E02020FFF711FF1021B44800F063FC18
:10044000681CC5B2082DE2DB0A20FFF706FF204634
:1004500070BD70B50446002517E01021AB4800F0D0
:1004600054FC14F0800F04D02021A84800F04BFC6D
:1004700003E02021A54800F048FC6006040E10218E
:10048000A24800F040FC681CC5B2082DE5DB70BD39
:100490002DE9F04780460D4616461F46DDF82090B0
:1004A00002219A4800F031FC0320FFF7D2FF4046BA
:1004B000FFF7CFFF2846FFF7CCFF3046FFF7C9FF15
:1004C000002404E0FFF79FFF3855601CC4B24C4580
:1004D000F8DB02218D4800F016FCBDE8F0872DE91D
:1004E000F04180460D461446002712E0294640465A
:1004F000FFF756FF002606E020780121FFF71AFFDC
:10050000641C701CC6B2102EF6DB681CC5B2781CC9
:10051000C7B2022FEADBBDE8F0812DE9F0478EB0CB
:1005200006468A4615460024A6E0285DB02836DB3C
:10053000285DF72833DC601C285CA1282FDB285DB0
:10054000B0385E21484372490860601C285C00F2A4
:10055000AD20096808446E490860084600684001FB
:10056000086008460068C0F3074708460088C0F3E3
:100570000728084690F80090202006AB4A464146DE
:1005800000903846FFF784FF06AA51463046FFF731
:10059000A6FF06F11000C6B2A01CC4B26CE0285D34
:1005A000A12835DB285DA32832DC601C285CA1284B
:1005B0002EDB285DA1385E21484355490860601C48
:1005C000285CA13809680844514908600846006859
:1005D0004001086008460068C0F3074708460088E5
:1005E000C0F30728084690F80090202006AB4A4642
:1005F000414600903846FFF74BFF06AA5146304669
:10060000FFF76DFF06F11000C6B2A01CC4B233E0C4
:10061000285D20282EDB285D7E282BDC285D2038F5
:100620003B49086008460068000108600846006809
:10063000384908443649086008460068C0F307474F
:1006400008460088C0F30728084690F8009010205C
:1006500002AB4A46414600903846FFF719FF02AA0E
:1006600051463046FFF7B1FE06F10800C6B2601CE5
:10067000C4B201E0601CC4B2285D00283FF755AF4A
:100680000EB0BDE8F0872DE9F04106460F4614464E
:1006900039463046FFF784FE002506E02078012128
:1006A000FFF748FE641C681CC5B2062DF6DBBDE8EA
:1006B000F0812DE9FE4F80468A46154600243DE034
:1006C000285D202838DB285D7E2835DC285D203831
:1006D0000F49086008460068C000086008460068C6
:1006E0000D4908440A49086008460068C0F30749F4
:1006F00008460088C0F3072608460778082001ABA3
:100700003A4631460090484608E0000000080140A3
:100710004004002080CF0300C0BF0300FFF7B8FEF5
:1007200001AA51464046FFF7AEFF08F1060000F06F
:10073000FF08601CC4B201E0601CC4B2285D002840
:10074000BEDCBDE8FE8F002106E042F6E06100BF9E
:100750000A00A1F10101FBD10200A0F10100F4D1D6
:10076000704770B5002419E004F1B001C8B200214F
:10077000FFF7E0FD00211020FFF7DCFD0021084617
:10078000FFF7D8FD002505E001210020FFF7D2FD8D
:10079000681CC5B2802DF7DB601CC4B2082CE3DBFB
:1007A00070BD10B504463CB90021C820FFF7C2FD5A
:1007B0000021A120FFF7BEFD012C07D10021C020A0
:1007C000FFF7B8FD0021A020FFF7B4FD10BD10B564
:1007D00004461CB90021A620FFF7ACFD012C03D173
:1007E0000021A720FFF7A6FD10BD10B58021A64867
:1007F00000F089FA0221A44800F085FAC820FFF72A
:10080000A2FF0021AE20FFF795FD00210846FFF76B
:1008100091FD00211020FFF78DFD00214020FFF702
:1008200089FD00218120FFF785FD0021CF20FFF702
:1008300081FD0021A120FFF77DFD0021C820FFF7E9
:1008400079FD0021A620FFF775FD0021A820FFF704
:1008500071FD00213F20FFF76DFD0021D320FFF740
:1008600069FD00210846FFF765FD0021D520FFF74F
:1008700061FD00218020FFF75DFD0021D920FFF7F9
:1008800059FD0021F120FFF755FD0021DA20FFF787
:1008900051FD00211220FFF74DFD0021DB20FFF765
:1008A00049FD00214020FFF745FD00212020FFF7F2
:1008B00041FD00210220FFF73DFD00218D20FFF7C3
:1008C00039FD00211420FFF735FD0021A420FFF79A
:1008D00031FD0021A620FFF72DFDFFF742FF00218B
:1008E000AF20FFF727FD10BD10B5FFF77EFF0020FA
:1008F000FFF76DFF0020FFF754FFFFF732FF4FF4C3
:100900007A70FFF720FF61A200210846FFF7D1FEB1
:1009100060A202211020FFF700FE62A20421302015
:10092000FFF7FBFD61A206213020FFF7F6FD002056
:1009300010BD10B500218D20FFF7FCFC0021142014
:10094000FFF7F8FC0021AF20FFF7F4FC10BD10B555
:1009500000218D20FFF7EEFC00211020FFF7EAFCBC
:100960000021AE20FFF7E6FC10BD70B5044600255F
:1009700010E029460020FFF713FD002606E020784E
:100980000121FFF7D7FC641C701CC6B2802EF6DB79
:10099000681CC5B2082DECDB70BD2DE9F05F044684
:1009A0008A4690461D4604EBC5000830C4B2404953
:1009B000404600F04FFE834600F082FE8146A4F1DF
:1009C0001801C8B23BA25146FFF7A7FD002656E02A
:1009D0000A20B9FBF0F100FB1197B9FBF0F9A4F183
:1009E0000800C4B2022E02D1A4F10800C4B20A2F3A
:1009F00042D2DFE807F0050B11171D23292F353BE5
:100A00002DA251462046FFF788FD35E02BA2514626
:100A10002046FFF782FD2FE029A251462046FFF72E
:100A20007CFD29E027A251462046FFF776FD23E012
:100A300025A251462046FFF770FD1DE023A2514636
:100A40002046FFF76AFD17E021A251462046FFF736
:100A500064FD11E01FA251462046FFF75EFD0BE04A
:100A60001DA251462046FFF758FD05E01BA2514646
:100A70002046FFF752FD00BF00BF701CC6B2AE4259
:100A8000A6DBBDE8F09F00000008014061626364DE
:100A900065660000B3CCD0F2D4CBD0D0BDE1CAF8AB
:100AA00000000000D4D9BCFB0000000042796500C2
:100AB0000000C8422E00000030000000310000009D
:100AC0003200000033000000340000003500000058
:100AD0003600000037000000380000003900000038
:100AE00010B50446C549601A8C422FD009DCC448B1
:100AF000201810D0B0F5806F16D0B0F5006F4AD135
:100B00001BE0B0F5806F2AD0B0F5006F30D0B0F5A3
:100B1000406F40D135E00121042000F0F9FA0021B6
:100B2000042000F0F5FA37E00121082000F0F0FA87
:100B30000021082000F0ECFA2EE00121102000F046
:100B4000E7FA0021102000F0E3FA25E0012120203F
:100B500000F0DEFA0021202000F0DAFA1CE001218A
:100B6000402000F0D5FA0021402000F0D1FA13E037
:100B70000121802000F0CCFA0021802000F0C8FA8A
:100B80000AE00121080200F0C3FA00214FF480704E
:100B900000F0BEFA00E000BF00BF10BD10B501219B
:100BA000084600F0B5FA0021012000F0B1FA10BDAE
:100BB0002DE9F041024600250026002000230024F4
:100BC000002791F803C00CF00F0591F803C01CF04A
:100BD000100F03D091F802C04CEA050591F800C04F
:100BE000BCF1000F31D0146800202BE04FF0010C55
:100BF0000CFA00F3B1F800C00CEA03069E4220D1C3
:100C000083004FF00F0C0CFA03F7BC4305FA03FC0A
:100C10004CEA040491F803C0BCF1280F06D14FF050
:100C2000010C0CFA00FCC2F814C00AE091F803C0F1
:100C3000BCF1480F05D14FF0010C0CFA00FCC2F8D2
:100C400010C0401C0828D1D31460B1F800C0BCF11A
:100C5000FF0F34DD546800202EE000F1080C4FF047
:100C6000010808FA0CF3B1F800C00CEA03069E4232
:100C700021D183004FF00F0C0CFA03F7BC4305FAA7
:100C800003FC4CEA040491F803C0BCF1280F05D121
:100C900000F1080C08FA0CF8C2F8148091F803C0AF
:100CA000BCF1480F07D100F1080C4FF0010808FA19
:100CB0000CF8C2F81080401C0828CED35460BDE860
:100CC000F0814FF6FF710180022181700421C17013
:100CD00070470246002093680B4201D0012000E0DB
:100CE000002070470146886880B2704702460020A5
:100CF000D3680B4201D0012000E00020704701467C
:100D0000C86880B2704701617047416170470AB19D
:100D1000016100E041617047C16070474FF480326B
:100D20000A438261816182618269826970470246F9
:100D30000020344B18684FF68073184040EA0210C8
:100D40000843304B186070472F49C8617047F0B5B1
:100D50000A4600230024002100252A4E7168C0F3B2
:100D6000034583B200F44016B6F5401F08D121F0C8
:100D70007061244E766826F07066224F7E6012E025
:100D800000F48016B6F5801F06D1032606FA05F496
:100D9000A14341F0706106E0460D360103FA06F604
:100DA000B14341F0706122B1460D360103FA06F6F7
:100DB0003143144E7160F0BD30B500228B071C0F1B
:100DC0000F2303FA04F20F4B08338C1053F824302E
:100DD00093430C4C08348D1044F8253023468C1076
:100DE00053F824308C07240F00FA04F42343054CF5
:100DF00008348D1044F8253030BD00000014014047
:100E000000F8FEBF0000014000002042DC480068FE
:100E100040F00100DA49086008464068D9490840B6
:100E2000D749486008460068D7490840D449086057
:100E30000846006820F4802008600846406820F4D6
:100E4000FE004860002088607047CD49096821F4A1
:100E50008031CB4A11601146096821F4802111606C
:100E6000B0F5803F03D0B0F5802F0ED106E0C44925
:100E7000096841F48031C24A116007E0C04909683D
:100E800041F4A021BE4A116000E000BF00BF7047DE
:100E900010B501460022002300204A11012A02D188
:100EA000B74C236806E0022A02D1B54C236A01E060
:100EB000B34C636A01F01F02012494401C4201D02C
:100EC000012000E0002010BD38B500200090002473
:100ED000002500BF3120FFF7DBFF05460098401CCE
:100EE00000901DB90098B0F5A06FF3D13120FFF745
:100EF000CFFF08B1012400E00024204638BD0146A0
:100F000000209F4A106820F0F80040EAC1001060FD
:100F100070479E490860704702460020984B586809
:100F200020F47C1042EA01031843954B5860704747
:100F300096490866704701460020914A506820F0A3
:100F400003000843506070478D48406800F00C0073
:100F50007047014600208A4A506820F0F00008439C
:100F60005060704701460020854A506820F4E060D8
:100F700008435060704701460020814A506820F4C1
:100F8000605040EAC1005060704729B17C4A527AF3
:100F900002437B4B5A7204E0794A527A8243784B7F
:100FA0005A7270477A490860704701460020744AB7
:100FB000506820F440400843506070470021754A53
:100FC00011706F4A82F82010012802D0042808D13D
:100FD00003E001216F4A117004E005216D4A117090
:100FE00000E000BF00BF70476B490860704764496C
:100FF000096A0143624A11627047674944390860CF
:10100000704730B500210022002400235C4D6D683C
:1010100005F00C0121B1042905D0082923D105E0F0
:101020005E4D056022E05D4D05601FE0544D6D682A
:1010300005F47012022505EB9242514D6D6805F4DE
:1010400080341CB9564D554305600BE04C4D6D681E
:1010500015F4003F03D0524D5543056002E04F4D5B
:101060005543056002E04D4D056000BF00BF444D93
:101070006D6805F0F00109094A4D6B5C0568DD40BB
:1010800045603F4D6D6805F4E061090A454D6B5CB4
:101090004568DD4085603A4D6D6805F46051C90AC8
:1010A000404D6B5C4568DD40C560354D6D6805F4AD
:1010B0004041890B3C4D6B5CC568B5FBF3F50561A0
:1010C00030BD29B12E4A526902432D4B5A6104E0CA
:1010D0002B4A526982432A4B5A61704729B1284AE8
:1010E00092690243264B9A6104E0254A9269824341
:1010F000234B9A61704729B1214AD2690243204BA0
:10110000DA6104E01E4AD26982431D4BDA617047FE
:1011100029B11B4AD2680243194BDA6004E0184A2D
:10112000D2688243164BDA60704729B1144A1269BB
:101130000243134B1A6104E0114A12698243104BB7
:101140001A61704714494039086070470F49C864F4
:1011500070470B49C87170470948406A40F0807079
:1011600007494862704701460020054A92680A42D2
:1011700001D0012000E000207047014988727047CB
:10118000001002400000FFF8FFFFF6FE00004242A0
:10119000D8004242201002408004424200127A00ED
:1011A00000093D00440400205404002010B504460A
:1011B000D749601A8C422BD006DCD648201813D0B1
:1011C000B0F5806F38D119E0B0F5806F2AD0B0F556
:1011D0006C4F31D101218803FFF79AFF00214FF4B2
:1011E0008040FFF795FF28E001214804FFF79DFFAD
:1011F00000214FF40030FFF798FF1EE00121880422
:10120000FFF793FF00214FF48020FFF78EFF14E0DB
:101210000121C804FFF789FF00214FF40020FFF7E8
:1012200084FF0AE001210805FFF77FFF00214FF44A
:101230008010FFF77AFF00E000BF00BF10BD2DE96E
:10124000F04786B005460E460024A24600BF00BF08
:1012500000272F462C8A4CF6FF700440F088044388
:101260002C82AC894EF6F3100440B08831890843D3
:10127000718908430443AC81AC8A4FF6FF400440B7
:10128000B0890443AC8201A8FFF7BBFEA2488742A5
:1012900002D1DDF810A001E0DDF80CA00AEBCA00D5
:1012A00000EB0A1031688900B0FBF1F86420B8FB4C
:1012B000F0F004012009642101FB1089322000EBC9
:1012C0000910B0FBF1F000F00F0004432C8106B0D0
:1012D000BDE8F0874FF41651016000218180C18084
:1012E00001810C21418100218181704710B50246A6
:1012F0000020108A4FF2FF0318400B884C882343CC
:101300008C882343CC8823431843108210BD0021CE
:10131000018041808180C180704721B1828942F47F
:101320000052828104E082894DF6FF731A40828167
:101330007047F0B50346002400260025002018461B
:10134000C1F3421401F01F06012707FA06F5012C2C
:1013500001D10C3004E0022C01D1103000E0143037
:101360001AB107682F43076002E00768AF430760C0
:10137000F0BD1AB1838A0B43838202E0838A8B43D8
:1013800083827047028A4FF6F0731A400282028A03
:101390000A430282704782894FF2FF731A408281AA
:1013A00082890A438281704721B1828942F0020218
:1013B000828104E082894FF6FD731A408281704772
:1013C000028A4FF6DF731A400282028A0A430282BF
:1013D000704721B1028A42F48042028204E0028A0C
:1013E0004BF6FF731A4002827047C1F308028280F5
:1013F000704701468888C0F308007047818941F032
:10140000010181817047028BD2B20283028B42EAD2
:10141000012202837047028B02F47F420283028B17
:101420000A430283704721B1828A42F020028282FD
:1014300004E0828A4FF6DF731A408282704721B13E
:10144000828A42F01002828204E0828A4FF6EF73B1
:101450001A408282704721B1828A42F00802828259
:1014600004E0828A4FF6F7731A4082827047828ABC
:101470004FF6FB731A408282828A0A438282704747
:1014800021B1828A42F00202828204E0828A4FF60F
:10149000FD731A40828270470246002013880B4277
:1014A00001D0012000E000207047CA43028070474D
:1014B00070B502460B460024002100250020C3F32E
:1014C000421503F01F01012606FA01F1012D02D198
:1014D0009689314006E0022D02D1168A314001E0A2
:1014E000968A31401C12012606FA04F4168834400C
:1014F00011B10CB1012000E0002070BD10B5002238
:1015000000230A1201249440A3B2DC43048010BDDE
:10151000004C004000BCFFBF003801400CB500206B
:10152000019000904748006840F4803045490860C9
:1015300000BF4448006800F4003000900198401C4F
:101540000190009818B90198B0F5A06FF1D13D480D
:10155000006810F4003F02D00120009001E000205C
:1015600000900098012843D13748006840F01000EF
:10157000354908600846006820F003000860084606
:10158000006840F0020008602E4840682D4948601D
:101590000846406848600846406840F480604860FB
:1015A0000846406820F47C1048600846406840F4D3
:1015B000E81048600846006840F08070086000BF8E
:1015C0002048006810F0007FFAD01E48406820F0E4
:1015D00003001C4948600846406840F0020048602B
:1015E00000BF1848406800F00C000828F9D101E05D
:1015F00000BFFEE70CBD10B5FFF790FF10BD10B5A2
:101600001048006840F001000E4908600846406834
:101610000E4908400B494860084600680C490840DC
:10162000084908600846006820F4802008600846E1
:10163000406820F4FE00486000208860FFF7DBFF70
:1016400010BD000000100240002002400000FFF822
:10165000FFFFF6FE80EA010210B502F000434000F1
:1016600026D04A0023D04FEA106101EB1261C0F38B
:101670005600C2F3560240F4000042F40002A0FB00
:101680000220A1F17F014FEA0040140401D000F1D3
:10169000010050EA124001D44000491EC2B20C06BB
:1016A00004EBD010401C4008802A02D003E0002048
:1016B00010BD20F00100002900DA0020184310BD01
:1016C00020F00040C10DC0F3160040F400007F2957
:1016D00001DA00207047962903DCC1F19601C84069
:1016E0007047963988407047064C074D06E0E06821
:1016F00040F0010394E8070098471034AC42F6D359
:10170000FEF71AFD88170008A817000870B501EB4E
:10171000020410F8015B15F0070301D110F8013B3A
:101720002A1106D110F8012B03E010F8016B01F823
:10173000016B5B1EF9D12B0705D40023521E0FD479
:1017400001F8013BFAE710F8013B02F10202A1EBBC
:10175000030303E013F8015B01F8015B521EF9D5A6
:10176000A142D6D3002070BD02E008C8121F08C1F4
:10177000002AFAD170477047002001E001C1121F12
:10178000002AFBD170470000A817000800000020C5
:10179000580400000C170008C01800085804002066
:1017A00000020000781700081116060AFE0AC61289
:1017B000E012F062F84EFE7DBBC7EF01053EC7BBED
:1017C0007DFE300D080CFEFE0C082060FEFE602041
:1017D0008F7848FE82BABA0309135EAA0101017E1E
:1017E0006CFEFF0301CBFFFF0F39BBECC0C0C0276D
:1017F0001918F92701392975990B6CFFFF0C01495C
:101800001A0C22E1E1E12701396C0F1F1801FB1FBF
:101810000F0F092E27013925E2928A86167C8282D3
:10182000827C12FE258292AAC65BC0C01111AD0255
:101830000202FE10190D012B300A24A42E24E424E8
:101840002EA424000A56F84A4C48F8484C4AF81C82
:10185000C0201001AB20C00A11300A120A07027F13
:1018600002070A121E0B0A0A0A7F0402560B980A84
:101870001F2040404050205F800A11300EFE8242FF
:10188000A29E8A82868AB26202FE1C7F40400319B1
:10189000012909211809808080BFA5A5A53F041A48
:1018A000BF0C1178087F24243F24247F08812D0158
:1018B00002030404000900060708090204060800E0
:0400000508000147A7
:00000001FF
