:020000040800F2
:100000000004002047010008650400086704000898
:100010006B0400086F04000873040008000000006F
:10002000000000000000000000000000770400084D
:1000300079040008000000007B0400087D0400082B
:1000400067010008670100086701000867010008F0
:1000500067010008670100086701000867010008E0
:1000600067010008670100086701000867010008D0
:1000700067010008670100086701000867010008C0
:1000800067010008670100086701000867010008B0
:1000900067010008670100086701000867010008A0
:1000A0006701000867010008670100086701000890
:1000B0006701000867010008670100086701000880
:1000C0006701000867010008670100086701000870
:1000D000670100088705000867010008670100083C
:1000E0006701000867010008670100086701000850
:1000F0006701000867010008670100086701000840
:10010000670100086701000867010008670100082F
:10011000670100086701000867010008670100081F
:10012000670100086701000867010008670100080F
:10013000DFF80CD002F046FD0048004775010008CA
:1001400098060020704708488047084981F30888CE
:1001500007480047FEE7FEE7FEE7FEE7FEE7FEE7AB
:10016000FEE7FEE7FEE7FEE74501000898060020EF
:10017000310100088AB0002402F0B5F900F082F9DC
:100180007EA002F06FFD092181A000F0B7FF01F011
:1001900009FB82A002F066FD01F08CF985A002F057
:1001A00061FD01F0F3FB01F0BCFB86A002F05AFDFB
:1001B00000F012FA00F02CFA4FF40051864801F0DA
:1001C00018FD00F017FD85A20021084600F05BFC39
:1001D00087A20421002000F056FC89A206210020FD
:1001E00000F051FC40F6B83001F01CFB00F0BEFC02
:1001F0004FF40051784801F0FAFCBEE04FF4005192
:10020000754801F0F6FC40F2DC5001F00BFB4FF4B6
:100210000051714801F0EBFC601CC4B2052C2BDDD1
:10022000002400F0E7FC7AA20421002000F02BFC5F
:1002300001F0EBF8054604232A461946282000F071
:10024000D3FD75A20421502000F01DFC73A20621ED
:10025000002000F018FC01F0DBF8074602F045FB37
:1002600005462A460B466FA105A802F00BFD05AA1C
:100270000621282000F007FC01F061FB01282ED1A7
:10028000642001F0CFFA69A20021084600F0FBFBD0
:1002900068A20121102000F029FC01F071FB85B259
:1002A00004232A460021282000F014FE62A2002127
:1002B000482000F0E8FB61A20221002000F0E3FBEF
:1002C00001F061FB85B204232A460221282000F0B8
:1002D00001FE5CA20221482000F0D5FB09E05AA2F1
:1002E0000021084600F0CFFB59A20221002000F0B7
:1002F000CAFB442000F0A3FF00283ED0642001F098
:1003000091FA43A20421002000F0BDFB01F07DF82A
:10031000074602F0EAFA05462A460B464FA105A811
:1003200002F0B0FC0120002205ABCDE901200093D2
:10033000039005237F220421282000F0D4FA37A25D
:100340000621002000F09FFB01F062F8074602F052
:10035000CCFA05462A460B4632A105A802F092FCCB
:100360000120002205ABCDE9012000930390072373
:100370007F220621282000F0B6FA3FE7555341526C
:1003800054B3F5CABCBBAFCDEAB3C9210A00000023
:10039000B2E2CAD4CAFDBEDD0000000044656C6153
:1003A000795F496E6974B3F5CABCBBAFCDEAB3C916
:1003B000210A0000494943B3F5CABCBBAFCDEAB33B
:1003C000C9210A005347503330B3F5CABCBBAFCD87
:1003D000EAB3C9210A00000000100140D6C7C4DCFE
:1003E000D6C6D4ECBCBCCAF5D1B5C1B7000000007C
:1003F0002020204C6F6B48696E2043616E00000026
:1004000020202020C8D9D3FEB3F6C6B700000000D4
:1004100054656D70200000002743000048756D6929
:1004200020000000252E326625250000434F2020A5
:10043000200000003200000070706D0054564F43E1
:1004400020000000707064005347503330000000FB
:10045000B3F5CABCBBAFD6D000000000252E326673
:1004600025274300704700BFFEE700BFFEE700BF3F
:10047000FEE700BFFEE770477047704710B501F018
:10048000C8F910BD00B587B0012144F2040001F0A5
:1004900099FD4FF40070ADF8180018208DF81B007E
:1004A00003208DF81A0006A9494801F0F5FA4FF427
:1004B0008060ADF8180004208DF81B0006A94448A0
:1004C00001F0EAFA4FF4E13002900020ADF80C00A0
:1004D000ADF80E00ADF81000ADF814000C20ADF82A
:1004E000120002A93B4801F01EFE0121394801F02B
:1004F00088FE012240F22551364801F08EFE40F27E
:100500002551344801F06EFF4FF4E06000F082FDA9
:1005100025208DF8040001208DF807008DF80500D6
:100520008DF8060001A800F07AFD07B000BD10B5F7
:1005300004462146274801F0CCFE00BF8021254813
:1005400001F01EFF0028F9D010BD10B5044620218F
:10055000204801F015FF08B9002010BD1D4801F02A
:10056000BCFE20700120F8E708B50020009004E0F0
:100570009DF80010174801F0ACFE6846FFF7E5FF54
:100580000128F5D008BD10B540F22551114801F001
:1005900003FF01280DD10F4801F09FFEC4B2204691
:1005A00000F002FE00BF80210A4801F0E9FE0028A9
:1005B000F9D010BD00BF704700BF064A128812F084
:1005C000400FFAD0C2B2034B1B1D1A8070470000C7
:1005D000000801400038014008B50121102001F059
:1005E000F1FC4FF40050ADF8000010208DF803002E
:1005F00003208DF802006946044801F04DFA4FF4DB
:100600000051024801F0F3FA08BD0000001001405B
:1006100008B50121042001F0D5FC03208DF802006B
:1006200010208DF803008020ADF800006946FE48D8
:1006300001F032FA40F20740ADF800006946FB488D
:1006400001F02AFA04208DF803004002ADF8000002
:1006500003208DF802006946F34801F01DFA08BD39
:100660002DE9F04105460E46174626B10221EF4816
:1006700001F0BDFA03E00221EC4801F0BAFA0421CE
:10068000EA4801F0B6FAE7B1002417E08021E64815
:1006900001F0AFFA15F0800F04D00121E34801F01A
:1006A000A8FA03E00121E14801F0A1FA8021DE4827
:1006B00001F09DFA6806050E601CC4B2082CE5DB4B
:1006C0001BE0002417E08021D74801F092FA15F0D2
:1006D000800F04D00121D54801F089FA03E00121FF
:1006E000D24801F086FA8021CF4801F080FA6806EE
:1006F000050E601CC4B2082CE5DB0421CB4801F0D8
:1007000076FA0221C94801F072FABDE8F08170B5AD
:1007100004460D46002229462046FFF7A1FF70BD82
:1007200070B504460D4605F1B001C8B20021FFF7CF
:10073000EEFF102141EA14100021FFF7E8FF04F05A
:100740000F000021FFF7E3FF70BD2DE9F0470546DC
:100750000E4617469846DDF820A0344612E02146A2
:100760002846FFF7DDFFA94608E052460121002098
:10077000FFF776FF09F1010000F0FF09B945F4DD4C
:10078000601CC4B24445EADDBDE8F0872DE9F047BE
:1007900081460D4614461E464FF0000815E02946D6
:1007A0004846FFF7BDFF002707E0207832460121C9
:1007B000FFF756FF641C781CC7B2082FF5DB681CD6
:1007C000C5B208F1010000F0FF08B8F1020FE6DB46
:1007D000BDE8F08770B50024002514E08021924820
:1007E00001F007FA6006040E4FF400618F4801F033
:1007F000E4F9012801D1601CC4B280218A4801F0CB
:10080000F6F9681CC5B2082DE8DB204670BD70B54E
:100810000446002517E08021834801F0EAF914F02E
:10082000800F04D00121814801F0E1F903E00121AA
:100830007E4801F0DEF96006040E80217A4801F05E
:10084000D6F9681CC5B2082DE5DB70BD2DE9F0476F
:1008500080460D4616461F46DDF820904FF4806115
:10086000724801F0C6F90320FFF7D1FF4046FFF7B9
:10087000CEFF2846FFF7CBFF3046FFF7C8FF002426
:1008800004E0FFF7A7FF3855601CC4B24C45F8DB05
:100890004FF48061654801F0AAF9BDE8F0872DE9C1
:1008A000F04781460D4614461E464FF0000815E0FD
:1008B00029464846FFF734FF002707E020783246F4
:1008C0000121FFF7CDFE641C781CC7B2102FF5DBA9
:1008D000681CC5B208F1010000F0FF08B8F1020F72
:1008E000E6DBBDE8F0872DE9FF4F8DB006461746E1
:1008F000DDE91A580024B2E0285DB02837DB285D16
:10090000F72834DC601C285CA12830DB285DB03877
:100910005E21484346490860601C285C00F2AD2017
:1009200009680844424908600846006840010860B8
:1009300008460068C0F3074908460088C0F3072A44
:10094000084690F800B0202005AB5A46514600906A
:100950004846FFF77BFF434605AA30460E99FFF74E
:100960009EFF06F11000C6B2A01CC4B277E0285D5D
:10097000A12836DB285DA32833DC601C285CA12875
:100980002FDB285DA1385E21484329490860601C9F
:10099000285CA138096808442549086008460068B1
:1009A0004001086008460068C0F30749084600880F
:1009B000C0F3072A084690F800B0202005AB5A463D
:1009C000514600904846FFF741FF434605AA30468E
:1009D0000E99FFF764FF06F11000C6B2A01CC4B266
:1009E0003DE0285D202838DB285D7E2835DC285D49
:1009F00020380F4908600846006800010860084672
:100A000000680C4908440A49086008460068C0F3B9
:100A1000074908460088C0F3072A084690F800B046
:100A2000102001AB5A4607E000080140000C0140CD
:100A30004404002080CF0300514600904846FFF751
:100A400005FF434601AA30460E99FFF79FFE06F1C7
:100A50000800C6B2601CC4B201E0601CC4B2285DCC
:100A600000283FF749AF5FB11C9848B11D9800EAD4
:100A7000080000903A463046109B0E99FFF765FE3D
:100A800011B0BDE8F08F7FB505460E461446002034
:100A9000CDE90040029003460246314603902846C5
:100AA000FFF721FF7FBD2DE9F04107468846144638
:100AB0001D4641463846FFF733FE002607E0207802
:100AC0002A460121FFF7CCFD641C701CC6B2062E1D
:100AD000F5DBBDE8F08170B504460D4616460023EF
:100AE000324629462046FFF7DEFF70BD2DE9FE4F56
:100AF00080468A461546002433E0285D20282EDBF8
:100B0000285D7E282BDC285D2038F94908600846DE
:100B10000068C000086008460068F6490844F449C7
:100B2000086008460068C0F3074908460088C0F31B
:100B3000072608460778082001AB3A463146009060
:100B40004846FFF783FE01AA51464046FFF7C3FF20
:100B500008F1060000F0FF08601CC4B201E0601C50
:100B6000C4B2285D0028C8DCBDE8FE8F70B5002443
:100B700019E004F1B001C8B20021FFF7C8FD00215F
:100B80001020FFF7C4FD00210846FFF7C0FD002537
:100B900005E001210020FFF7BAFD681CC5B2802DD9
:100BA000F7DB601CC4B2082CE3DB70BD10B5044653
:100BB0003CB90021C820FFF7AAFD0021A120FFF7C2
:100BC000A6FD012C07D10021C020FFF7A0FD0021C8
:100BD000A020FFF79CFD10BD10B504461CB90021F4
:100BE000A620FFF794FD012C03D10021A720FFF7D9
:100BF0008EFD10BD10B50421BF4800F0F8FF4FF482
:100C00008061BD4800F0F3FFC82000F00BFE00211A
:100C1000AE20FFF77CFD00210846FFF778FD00219C
:100C20001020FFF774FD00214020FFF770FD002128
:100C30008120FFF76CFD0021CF20FFF768FD002128
:100C4000A120FFF764FD0021C820FFF760FD00210F
:100C5000A620FFF75CFD0021A820FFF758FD00212A
:100C60003F20FFF754FD0021D320FFF750FD002166
:100C70000846FFF74CFD0021D520FFF748FD002175
:100C80008020FFF744FD0021D920FFF740FD00211F
:100C9000F120FFF73CFD0021DA20FFF738FD0021AD
:100CA0001220FFF734FD0021DB20FFF730FD00218B
:100CB0004020FFF72CFD00212020FFF728FD002118
:100CC0000220FFF724FD00218D20FFF720FD0021E9
:100CD0001420FFF71CFD0021A420FFF718FD0021C0
:100CE000A620FFF714FDFFF741FF0021AF20FFF71B
:100CF0000EFD10BD10B5FFF77DFF0020FFF76CFF64
:100D00000020FFF753FFFFF731FF4FF47A7000F038
:100D100089FD7AA200210846FFF7E8FE79A20221A8
:100D20001020FFF7B0FE7BA204213020FFF7ABFEBE
:100D30007AA206213020FFF7A6FE002010BD10B5D4
:100D400000218D20FFF7E3FC00211420FFF7DFFCDA
:100D50000021AF20FFF7DBFC10BD10B500218D2076
:100D6000FFF7D5FC00211020FFF7D1FC0021AE20B9
:100D7000FFF7CDFC10BD2DE9F04104460E460025DD
:100D800011E029460020FFF7CBFC002707E0207880
:100D900032460121FFF764FC641C781CC7B2802F27
:100DA000F5DB681CC5B2082DEBDBBDE8F08110B5A2
:100DB000044600212046FFF7DEFF10BD70B5044653
:100DC0000D4616460023324629462046FFF767FDAA
:100DD00070BD70B504460D461646002332462946BE
:100DE0002046FFF7D3FC70BD2DE9F05F04468A462C
:100DF00090461D4604EBC5000830C4B24849404641
:100E000001F09CFB834601F05CFD8146A4F11801D2
:100E1000C8B244A25146FFF736FE002656E00A202B
:100E2000B9FBF0F100FB1197B9FBF0F9A4F1080050
:100E3000C4B2022E02D1A4F10800C4B20A2F42D2D9
:100E4000DFE807F0050B11171D23292F353B36A2CC
:100E500051462046FFF717FE35E034A251462046A2
:100E6000FFF711FE2FE032A251462046FFF70BFE9E
:100E700029E030A251462046FFF705FE23E02EA2CE
:100E800051462046FFF7FFFD1DE02CA251462046AB
:100E9000FFF7F9FD17E02AA251462046FFF7F3FDC0
:100EA00011E028A251462046FFF7EDFD0BE026A2F7
:100EB00051462046FFF7E7FD05E024A251462046B3
:100EC000FFF7E1FD00BF00BF701CC6B2AE42A6DB5B
:100ED000BDE8F09F2DE9F04705468A4617461C46B7
:100EE00005EBC400C5B2B9464FF000088EE0000023
:100EF00044040020C0BF0300000C01406162636431
:100F000065660000B3CCD0F2D4CBD0D0BDE1CAF836
:100F100000000000D4D9BCFB00000000427965004D
:100F20000000C8422E000000300000003100000028
:100F300032000000330000003400000035000000E3
:100F400036000000370000003800000039000000C3
:100F50000A20B9FBF0F100FB1196B9FBF0F9A5F1FD
:100F60000800C5B20A2E4CD2DFE806F0050C131AB1
:100F700021282F363D44AFF2500251462846FFF754
:100F800082FD3EE0AFF25C0251462846FFF77BFD52
:100F900037E0AFF2640251462846FFF774FD30E0B7
:100FA000AFF2700251462846FFF76DFD29E0AFF21F
:100FB000780251462846FFF766FD22E0AFF2840230
:100FC00051462846FFF75FFD1BE0AFF28C02514609
:100FD0002846FFF758FD14E0AFF298025146284624
:100FE000FFF751FD0DE0AFF2A00251462846FFF792
:100FF0004AFD06E0AFF2AC0251462846FFF743FD3A
:1010000000BF00BF08F1010000F0FF08A0459FDB12
:10101000BDE8F08731490143314A1160704770B52E
:10102000002100230F22C4780CB32D4C246804F453
:10103000E064C4F5E064210AC1F10403CA404478C5
:1010400004FA03F18478144021430901254C067801
:10105000A155047804F01F050124AC4005786D11FA
:101060004FF0E02606EB8505C5F8004109E004785D
:1010700004F01F050124AC401B4D0678761145F89D
:10108000264070BD194A0A400243154B1B1F1A60C7
:10109000704739B1124A121D12680243104B1B1DD2
:1010A0001A6006E00E4A121D126882430C4B1B1D8B
:1010B0001A607047042808D14FF0E021096941F017
:1010C00004014FF0E022116107E04FF0E0210969CF
:1010D00021F004014FF0E022116170470000FA0591
:1010E0000CED00E000E400E080E100E080FFFF1F85
:1010F00010B504462046FFF71AFA10BD70B5054634
:101100000E46002407E0285DFFF7F2FF285D00B9D6
:1011100003E0601CC4B2B442F5DB00BF70BD30B563
:1011200003460C46002107E0585C655CA84201D0EC
:10113000002030BD481CC1B2585C18B1605C08B1D9
:101140009142F1DB585C655CA84201D00020F0E7D9
:101150000120EEE710B500201E491F4A127888547E
:1011600007211EA0FFF7CAFF0A211A48FFF7C6FF92
:1011700002211CA0FFF7C2FF1648407A20B11221BD
:1011800019A0FFF7BBFF09E00A221CA11148FFF7D5
:10119000C6FF18B119211BA0FFF7B0FF00200D49B1
:1011A00048720D49087010BD10B50446402C02D19C
:1011B000FFF7D0FF0CE00748074909784454064878
:1011C0000078092804DA04480078401C02490870B5
:1011D00010BD00007804002048040020636D643ACC
:1011E0005B0000005D0A0000436F6D6D616E64205E
:1011F0004F766572666C6F772100000054656D70E4
:101200000000000057656C636F6D650010B5044603
:1012100000F069F9002141EA4401C8B200F01AFA6D
:1012200000F0A4F9302000F015FA00F09FF9A22098
:1012300000F010FA00F09AF900F077F910BD2DE9EE
:10124000F04F87B0824600F04EF9002141EA4A0192
:10125000C8B200F0FFF900F089F92C2000F0FAF98B
:1012600000F084F9062000F0F5F900F07FF900F0B5
:101270005CF9322000F0D6FA00F035F9012101EBDB
:101280004A01C8B200F0E6F900F070F908BB01208D
:1012900000F019FAADF81000012000F014FAADF8D2
:1012A0001200012000F00FFAADF81400012000F048
:1012B0000AFAADF81600012000F005FAADF81800A2
:1012C000002000F000FAADF81A0000F09FF900F0DD
:1012D0002CF9BDF81200BDF8101040EA012084B2CC
:1012E000BDF81800BDF8161040EA01201FFA80F979
:1012F000BDF81A000090BDF814204B46214646A0C8
:1013000001F0B0FC204601F0D7FA834601F0EDFA77
:101310000022494BCDE9000101F0EDF90022474BD5
:10132000CDE9020101F059FA05460022444B01F0D3
:10133000DCF9074601F0ECFA42490860484601F042
:10134000BBFA834601F0D1FA00223F4BCDE90201FE
:1013500001F0D1F907460022384B01F03EFA05466C
:1013600001F0D6FA394908600846006801F0BDFA74
:1013700005460E463348006801F0B7FA07463A467C
:101380000B4633A0CDE9005601F06CFC38492D48DE
:10139000006801F0E3FA33D836492A48006801F0C2
:1013A000D3FA2DD800212948006801F0D7FA27D8B0
:1013B00031492648006801F0C7FA21D8A4F5FE405B
:1013C000FF3805D024B11F4800682C49086006E0AA
:1013D0002BA001F047FC002007B0BDE8F08FA9F575
:1013E0007F40FF3807D0B9F1000F04D017480068DC
:1013F0002249886004E029A001F034FC0020EBE7DA
:101400004FF0000900240120E6E71C4800687047FF
:101410001A48806870470000CEC2CAAAB6C8D4ADC8
:10142000CABCCAFDBEDDA3BA25785B25785D202045
:1014300025785B25785D0A0000E06540E0FFEF401D
:10144000008046404C040020000059405004002019
:10145000C8A1B5C3CEC2CAAAB6C8A3BA25362E3211
:10146000662A432025362E326625250A0000000014
:101470000000A0C10000FA420000C842840400201D
:1014800054656D7065726174757265204572726F16
:10149000722069676E6F72652E0A000048756D696B
:1014A00064697479204572726F722069676E6F7219
:1014B000652E0A0008B50121082000F083FDC02038
:1014C000ADF8000010208DF8030003208DF8020015
:1014D0006946AF4800F0E0FA0120AE490860AE4925
:1014E000C1F89C0108BD10B5A948006820F0704003
:1014F000A74908600846006840F040500860012095
:10150000A6490860A449C1F898014FF00A0000F00C
:1015100076F90020A14908604FF00A0000F06FF949
:1015200000209D49C1F8980110BD10B59848006889
:1015300020F07040964908600846006840F040502E
:1015400008600020934908609349C1F89C014FF05E
:101550000A0000F054F901208E4908608E49C1F854
:101560009C014FF00A0000F04AF910BD10B50024AC
:101570008748006820F07040854908600846006888
:1015800040F0004008600120844908604FF00A00E4
:1015900000F035F901208049C1F898010A2000F0D7
:1015A0002EF907E0601CC4B2FA2C03DDFFF7BDFF83
:1015B000012010BD7A4800680028F3D17549086001
:1015C00000BFF6E710B50020724908607048006857
:1015D00020F070406E4908600846006840F04050B6
:1015E00008604FF000006C49C1F89C014FF00A0000
:1015F00000F005F90120674908604FF00A0000F08B
:10160000FEF800206449C1F8980110BD10B5002013
:10161000604908605E48006820F070405C490860DE
:101620000846006840F0405008604FF001005A49F9
:10163000C1F89C014FF00A0000F0E1F80120554983
:1016400008604FF00A0000F0DAF800205249C1F8B3
:10165000980110BD70B504464D48006820F07040F8
:101660004B4908600846006840F040500860002080
:1016700048490860054620E0E00903D001204749B9
:10168000086002E00020454908604FEA44604FEAE4
:1016900010644FF00A0000F0B2F801203D490860E4
:1016A0004FF00A0000F0ABF800203B49C1F8980168
:1016B0000A2000F0A4F8681CC5B2082DDCDB0A2063
:1016C00000F09DF870BD70B50546002430480068F4
:1016D00020F070402E4908600846006840F0004045
:1016E0000860002616E000202A4908604FF00A0032
:1016F00000F085F801202849C1F898016006040E21
:101700002748006808B1601CC4B20A2000F077F8CE
:10171000701CC6B2082EE6DB15B9FFF777FF01E0B3
:10172000FFF750FF204670BD70B5054600241848ED
:10173000006820F07040164908600846006840F0D4
:1017400000400860002618E00020124908604FF0B1
:101750000A0000F054F801200F49C1F898014FF633
:10176000FF7000EA44040E48006808B1601C84B2AF
:101770000A2000F044F8701CC6B2082EE4DB15B94C
:10178000FFF744FF01E0FFF71DFF204670BD00009A
:10179000000C014098812142008021429C8121421D
:1017A0001C81214230B526480068264AB0FBF2F180
:1017B000B1F1807F01D301201DE021F07F40401E68
:1017C0004FF0E022506150170F22002807DA13076C
:1017D0001D0E1D4B00F00F04241F1D5503E01307C1
:1017E0001C0E1A4B1C5400BF00204FF0E0229061E9
:1017F00007201061002008B100BFFEE730BD01B531
:1018000013490098086000BF114800680028FBD108
:1018100008BD0F48006820B10D480068401E0C4903
:1018200008607047002106E042F6E06100BF0A0050
:10183000A1F10101FBD10200A0F10100F4D1704738
:1018400078350008A086010018ED00E000E400E013
:101850005404002010B5FFF746FEB020FFF7FAFE53
:1018600010BD10B5FFF73FFEB120FFF7F3FE10BD2E
:1018700070B505460C46FFF7EDFFFFF777FE2846EB
:10188000FFF7E8FEFFF772FE2046FFF7E3FEFFF7E3
:101890006DFEFFF74AFE4FF49670FFF7C3FF70BD71
:1018A00010B5FFF720FEB120FFF7D4FEFFF75EFE74
:1018B0000120FFF708FF044624020120FFF703FF81
:1018C00004440120FFF7FFFE24020120FFF7FBFE86
:1018D000044424020120FFF7F6FE04440020FFF731
:1018E000F2FEFFF722FE204610BD10B5FFF7FBFD0C
:1018F000B120FFF7AFFEFFF739FE0120FFF7E3FE4F
:1019000004464FF6FF7000EA04240120FFF7DBFED7
:10191000204484B20020FFF7D6FEFFF706FE2046E3
:1019200010BD10B503212020FFF7A2FFFFF7FDFD3A
:1019300000201D4908706420FFF774FF10BD10B52A
:1019400008212020FFF794FFFFF7AAFF0446200C90
:1019500016490860A0B2164908601348007868B9B3
:1019600012480068B0F5C87F02D10846006818B177
:1019700001200D49087001E0002010BD0120FCE7A6
:101980000A48006870470A480068704710B500248C
:1019900032212020FFF76CFFFFF7A7FF0446214606
:1019A00004A001F05FF910BD60040020580400207D
:1019B0005C0400200A534750D7D4BCECB7B5BBD861
:1019C0003A25580A0000000010B50446C549601ABF
:1019D0008C422FD009DCC448201810D0B0F5806F9D
:1019E00016D0B0F5006F4AD11BE0B0F5806F2AD059
:1019F000B0F5006F30D0B0F5406F40D135E0012137
:101A0000042000F0F9FA0021042000F0F5FA37E094
:101A10000121082000F0F0FA0021082000F0ECFA83
:101A20002EE00121102000F0E7FA0021102000F044
:101A3000E3FA25E00121202000F0DEFA0021202039
:101A400000F0DAFA1CE00121402000F0D5FA002174
:101A5000402000F0D1FA13E00121802000F0CCFA00
:101A60000021802000F0C8FA0AE00121080200F0FD
:101A7000C3FA00214FF4807000F0BEFA00E000BF0E
:101A800000BF10BD10B50121084600F0B5FA0021D5
:101A9000012000F0B1FA10BD2DE9F0410246002509
:101AA0000026002000230024002791F803C00CF03A
:101AB0000F0591F803C01CF0100F03D091F802C07D
:101AC0004CEA050591F800C0BCF1000F31D0146854
:101AD00000202BE04FF0010C0CFA00F3B1F800C02D
:101AE0000CEA03069E4220D183004FF00F0C0CFA43
:101AF00003F7BC4305FA03FC4CEA040491F803C065
:101B0000BCF1280F06D14FF0010C0CFA00FCC2F812
:101B100014C00AE091F803C0BCF1480F05D14FF0A2
:101B2000010C0CFA00FCC2F810C0401C0828D1D3EC
:101B30001460B1F800C0BCF1FF0F34DD5468002020
:101B40002EE000F1080C4FF0010808FA0CF3B1F890
:101B500000C00CEA03069E4221D183004FF00F0C17
:101B60000CFA03F7BC4305FA03FC4CEA040491F8B1
:101B700003C0BCF1280F05D100F1080C08FA0CF8DD
:101B8000C2F8148091F803C0BCF1480F07D100F1EE
:101B9000080C4FF0010808FA0CF8C2F81080401C3D
:101BA0000828CED35460BDE8F0814FF6FF71018064
:101BB000022181700421C1707047024600209368A1
:101BC0000B4201D0012000E00020704701468868E8
:101BD00080B2704702460020D3680B4201D001203A
:101BE00000E0002070470146C86880B2704701617C
:101BF0007047416170470AB1016100E0416170477F
:101C0000C16070474FF480320A4382618161826112
:101C100082698269704702460020344B18684FF68B
:101C20008073184040EA02100843304B1860704738
:101C30002F49C8617047F0B50A46002300240021EF
:101C400000252A4E7168C0F3034583B200F44016A4
:101C5000B6F5401F08D121F07061244E766826F059
:101C60007066224F7E6012E000F48016B6F5801F89
:101C700006D1032606FA05F4A14341F0706106E09F
:101C8000460D360103FA06F6B14341F0706122B108
:101C9000460D360103FA06F63143144E7160F0BD6D
:101CA00030B500228B071C0F0F2303FA04F20F4BF1
:101CB00008338C1053F8243093430C4C08348D10A7
:101CC00044F8253023468C1053F824308C07240F19
:101CD00000FA04F42343054C08348D1044F82530F1
:101CE00030BD00000014014000F8FEBF00000140BC
:101CF00000002042DC48006840F00100DA4908603A
:101D000008464068D9490840D749486008460068F5
:101D1000D7490840D44908600846006820F480206C
:101D200008600846406820F4FE0048600020886093
:101D30007047CD49096821F48031CB4A11601146C2
:101D4000096821F480211160B0F5803F03D0B0F51F
:101D5000802F0ED106E0C449096841F48031C24A9F
:101D6000116007E0C049096841F4A021BE4A116032
:101D700000E000BF00BF704710B5014600220023FD
:101D800000204A11012A02D1B74C236806E0022A3A
:101D900002D1B54C236A01E0B34C636A01F01F0223
:101DA000012494401C4201D0012000E0002010BD1D
:101DB00038B5002000900024002500BF3120FFF737
:101DC000DBFF05460098401C00901DB90098B0F557
:101DD000A06FF3D13120FFF7CFFF08B1012400E05D
:101DE0000024204638BD014600209F4A106820F09C
:101DF000F80040EAC100106070479E4908607047D3
:101E000002460020984B586820F47C1042EA0103F7
:101E10001843954B586070479649086670470146CD
:101E20000020914A506820F003000843506070473A
:101E30008D48406800F00C007047014600208A4A37
:101E4000506820F0F00008435060704701460020C1
:101E5000854A506820F4E0600843506070470146AE
:101E60000020814A506820F4605040EAC100506070
:101E7000704729B17C4A527A02437B4B5A7204E084
:101E8000794A527A8243784B5A7270477A4908608D
:101E9000704701460020744A506820F440400843CF
:101EA000506070470021754A11706F4A82F8201007
:101EB000012802D0042808D103E001216F4A1170E3
:101EC00004E005216D4A117000E000BF00BF7047BB
:101ED0006B49086070476449096A0143624A1162AC
:101EE0007047674944390860704730B500210022C7
:101EF000002400235C4D6D6805F00C0121B104291C
:101F000005D0082923D105E05E4D056022E05D4D36
:101F100005601FE0544D6D6805F47012022505EB55
:101F20009242514D6D6805F480341CB9564D5543AD
:101F300005600BE04C4D6D6815F4003F03D0524D29
:101F40005543056002E04F4D5543056002E04D4D9D
:101F5000056000BF00BF444D6D6805F0F001090940
:101F60004A4D6B5C0568DD4045603F4D6D6805F48A
:101F7000E061090A454D6B5C4568DD4085603A4D7E
:101F80006D6805F46051C90A404D6B5C4568DD40E1
:101F9000C560354D6D6805F44041890B3C4D6B5C67
:101FA000C568B5FBF3F5056130BD29B12E4A52690C
:101FB00002432D4B5A6104E02B4A526982432A4B5B
:101FC0005A61704729B1284A92690243264B9A61A7
:101FD00004E0254A92698243234B9A61704729B1F4
:101FE000214AD2690243204BDA6104E01E4AD269D9
:101FF00082431D4BDA61704729B11B4AD268024304
:10200000194BDA6004E0184AD2688243164BDA6052
:10201000704729B1144A12690243134B1A6104E054
:10202000114A12698243104B1A61704714494039B2
:10203000086070470F49C86470470B49C871704702
:102040000948406A40F0807007494862704701467D
:102050000020054A92680A4201D0012000E00020D9
:102060007047014988727047001002400000FFF875
:10207000FFFFF6FE00004242D8004242201002401C
:102080008004424200127A0000093D0061040020F1
:102090007104002010B50446D749601A8C422BD039
:1020A00006DCD648201813D0B0F5806F38D119E07F
:1020B000B0F5806F2AD0B0F56C4F31D10121880383
:1020C000FFF79AFF00214FF48040FFF795FF28E0CB
:1020D00001214804FFF79DFF00214FF40030FFF776
:1020E00098FF1EE001218804FFF793FF00214FF4C1
:1020F0008020FFF78EFF14E00121C804FFF789FF5D
:1021000000214FF40020FFF784FF0AE001210805B9
:10211000FFF77FFF00214FF48010FFF77AFF00E008
:1021200000BF00BF10BD2DE9F04786B005460E4642
:102130000024A24600BF00BF00272F462C8A4CF681
:10214000FF700440F08804432C82AC894EF6F310F3
:102150000440B08831890843718908430443AC8145
:10216000AC8A4FF6FF400440B0890443AC8201A81A
:10217000FFF7BBFEA248874202D1DDF810A001E0C4
:10218000DDF80CA00AEBCA0000EB0A1031688900E8
:10219000B0FBF1F86420B8FBF0F0040120096421E1
:1021A00001FB1089322000EB0910B0FBF1F000F0C8
:1021B0000F0004432C8106B0BDE8F0874FF41651A0
:1021C000016000218180C18001810C2141810021B9
:1021D0008181704710B502460020108A4FF2FF033C
:1021E00018400B884C8823438C882343CC88234396
:1021F0001843108210BD0021018041808180C18080
:10220000704721B1828942F40052828104E08289C0
:102210004DF6FF731A4082817047F0B503460024E3
:102220000026002500201846C1F3421401F01F06C5
:10223000012707FA06F5012C01D10C3004E0022C2D
:1022400001D1103000E014301AB107682F43076045
:1022500002E00768AF430760F0BD1AB1838A0B4301
:10226000838202E0838A8B4383827047028A4FF61F
:10227000F0731A400282028A0A43028270478289FE
:102280004FF2FF731A40828182890A43828170472C
:1022900021B1828942F00202828104E082894FF6F4
:1022A000FD731A4082817047028A4FF6DF731A402D
:1022B0000282028A0A430282704721B1028A42F4F2
:1022C0008042028204E0028A4BF6FF731A400282C7
:1022D0007047C1F308028280704701468888C0F3C6
:1022E00008007047818941F0010181817047028BAC
:1022F000D2B20283028B42EA012202837047028B30
:1023000002F47F420283028B0A430283704721B1A9
:10231000828A42F02002828204E0828A4FF6DF73D2
:102320001A408282704721B1828A42F01002828272
:1023300004E0828A4FF6EF731A408282704721B11F
:10234000828A42F00802828204E0828A4FF6F773A2
:102350001A4082827047828A4FF6FB731A4082824B
:10236000828A0A438282704721B1828A42F0020245
:10237000828204E0828A4FF6FD731A40828270479F
:102380000246002013880B4201D0012000E000200B
:102390007047CA430280704770B502460B4600245E
:1023A000002100250020C3F3421503F01F01012680
:1023B00006FA01F1012D02D19689314006E0022D85
:1023C00002D1168A314001E0968A31401C12012662
:1023D00006FA04F41688344011B10CB1012000E073
:1023E000002070BD10B5002200230A120124944081
:1023F000A3B2DC43048010BD004C004000BCFFBF12
:10240000003801400CB5002001900090474800685A
:1024100040F480304549086000BF4448006800F43B
:10242000003000900198401C0190009818B9019864
:10243000B0F5A06FF1D13D48006810F4003F02D024
:102440000120009001E0002000900098012843D175
:102450003748006840F010003549086008460068B9
:1024600020F0030008600846006840F002000860A1
:102470002E4840682D494860084640684860084634
:10248000406840F4806048600846406820F47C1052
:1024900048600846406840F4E81048600846006814
:1024A00040F08070086000BF2048006810F0007F96
:1024B000FAD01E48406820F003001C4948600846D6
:1024C000406840F00200486000BF1848406800F0D3
:1024D0000C000828F9D101E000BFFEE70CBD10B5E3
:1024E000FFF790FF10BD10B51048006840F00100E4
:1024F0000E490860084640680E4908400B4948608C
:10250000084600680C490840084908600846006809
:1025100020F4802008600846406820F4FE004860EF
:1025200000208860FFF7DBFF10BD000000100240B4
:10253000002002400000FFF8FFFFF6FE80EA0102E3
:1025400010B502F00043400026D04A0023D04FEAE5
:10255000106101EB1261C0F35600C2F3560240F461
:10256000000042F40002A0FB0220A1F17F014FEA2B
:102570000040140401D000F1010050EA124001D4DF
:102580004000491EC2B20C0604EBD010401C4008AB
:10259000802A02D003E0002010BD20F001000029B5
:1025A00000DA0020184310BD2DE9FE4F804681EA75
:1025B0000300C00F0C46009021F0004123F00045BD
:1025C000B8EB0200A94105D24046214690461C4680
:1025D0000B46024623F00040104304D140462146FA
:1025E00003B0BDE8F08F270DC7F30A00C3F30A510B
:1025F0000290401A0190402866DAC3F3130040F4B9
:10260000801B0098924620B10023D2EB030A63EBB3
:102610000B0B01985946C0F14002504600F0EFF90B
:1026200006460D4650465946019A00F0F7F910EB60
:1026300008006141002487EA115284EAE7731A43D3
:102640003BD0009A3AB3019A012A4FEA075210DCB4
:10265000001B61EB02014FF0004202EA0752CDE994
:102660000042001C41F5801132462B4600F02BFA47
:10267000B6E7001B61EB0201001C41F58013001856
:102680005B412018A2F5001747EB030140EAD57023
:10269000B6196D4111E06D084FEA360645EAC0757E
:1026A0004FEA0752001B61EB0201001C41F580114B
:1026B00049084FEA30000019514132462B4603B019
:1026C000BDE8F04F00F0F2B900980122400000236D
:1026D000D0EB020263EBE073009821464FEAE0740E
:1026E000B8EB000061EB0401E9E783F000435BE72E
:1026F00081F0004158E72DE9FE4F81EA030404F020
:10270000004421F0004100944FF0000B23F00043FF
:1027100050EA010402D052EA030404D10020014629
:1027200003B0BDE8F08FC3F30A54C1F30A552C443B
:10273000A4F2F3340194A0FB0254C1F3130141F459
:102740008011C3F3130343F4801301FB024400FB25
:10275000034E840A970A44EA815447EA8357A4FB4C
:10276000076802958D0A05FB07854FEA932C04FB49
:102770000C542705029D4FEA065847EA1637B5EB79
:1027800008056EEB070C870E920E47EA811742EAA6
:102790008312A7FB0201B6EB0B0164EB00042B0DC7
:1027A00043EA0C335E1844EB1C50DA465146E7FB13
:1027B0000201C5F313044FEA0B3343EA14534FEA03
:1027C0000432019C43EA0603A4F10C040294009C29
:1027D000CDE900B400F077F9A2E72DE9F04D81EAE8
:1027E000030404F0004B21F0004514464FF0000AAA
:1027F00023F0004150EA050220D054EA01021DD026
:10280000C5F30A570246C5F31303C1F31300C1F31E
:102810000A5640F4801543F48013A7EB0608101BFA
:10282000D64608F2FD3873EB050002D308F1010823
:1028300001E092185B41B8F1000F03DA0020014675
:10284000BDE8F08D00204FF48011064684460EE06E
:10285000171B73EB050705D3121B63EB0503064338
:102860004CEA010C49084FEA300092185B4150EAEB
:102870000107EDD152EA030012D082EA040083EA94
:102880000501084303D100224FF0004308E0101B6C
:10289000AB4102D20122002302E06FF0010253108B
:1028A0001AEB06004CEB085110EB0A0041EB0B0150
:1028B000BDE8F04D00F0FAB896230022114600F072
:1028C000C8B820F00040C10DC0F3160040F400006D
:1028D0007F2901DA00207047962903DCC1F19601B7
:1028E000C840704796398840704700F0004230F089
:1028F00000400AD0C10D01F56071C0F3160042EA34
:102900000151C2084007114370470020014670473B
:1029100001F0004330B421F0004150EA010206D03A
:102920000A0DA2F56072C1F31301002A02DC30BC6B
:1029300000207047440F44EAC104C100E01830BCD5
:1029400000EBC25000F07CB8002801DBC0F1004071
:10295000002901DBC1F1004181427047002801DB01
:10296000C0F10040002901DBC1F1004188427047FD
:1029700030B50B46014600202022012409E021FA4F
:1029800002F59D4205D303FA02F5491B04FA02F54C
:102990002844151EA2F10102F1DC30BD2DE9F05FE3
:1029A0000546002092469B468846064681464024BE
:1029B0001BE0284641464746224600F015F953469B
:1029C0005A46C01A914110D311461846224600F0CB
:1029D00016F82D1A67EB01084F4622460120002108
:1029E00000F00DF817EB00094E41201EA4F1010480
:1029F000DFDC484631462A464346BDE8F09F202AA0
:102A000004DB203A00FA02F1002070479140C2F145
:102A1000200320FA03F3194390407047202A06DB75
:102A2000CB17203A41FA02F043EAE07306E041FA9C
:102A300002F3D040C2F1200291400843194670478A
:102A40000029A8BF7047401C490008BF20F00100C2
:102A5000704710B4B0FA80FC00FA0CF050EA0104A0
:102A600004BF10BC704749B1CCF1200421FA04F432
:102A700011FA0CF118BF012121430843A3EB0C010B
:102A8000CB1D0106000A002BBEBF002010BC704702
:102A900000EBC35010440029A4BF10BC7047401C79
:102AA000490008BF20F0010010BC704710B5002B92
:102AB00008DA401C41F1000192185B411A4301D130
:102AC00020F0010010BD2DE9F04D92469B4611B15A
:102AD000B1FA81F202E0B0FA80F220329046FFF7BC
:102AE0008EFF04460F4640EA0A0041EA0B015346B6
:102AF0005A46084303D120463946BDE8F08D1146B9
:102B000053EA010015D0C8F14002504600F06CF8BD
:102B100005460E46504659464246FFF770FF0843A9
:102B200001D0012000E00020054346EAE0762C4376
:102B300037430A984FEA4453A0EB08004FEAD424E5
:102B40000A304FF0000244EA47544FEAD72502D535
:102B500000200146D1E7010510196941DDE908456A
:102B600000196941BDE8F04DA0E7C1F30A52C1F375
:102B7000130140F2FF3341F480119A4202DA00203F
:102B80000146704740F233439A42A2F2334202DCDC
:102B9000524200F029B8FFF732BF000030B50029DB
:102BA00004DB4FF00044404264EB0101002B04DBE6
:102BB0004FF00044524264EB0303994208BF904235
:102BC00030BD0000064C074D06E0E06840F0010310
:102BD00094E8070098471034AC42F6D3FDF7ACFAFE
:102BE0008C350008AC350008202A04DB203A21FA95
:102BF00002F00021704721FA02F3D040C2F1200216
:102C0000914008431946704770B501EB020410F873
:102C1000015B15F0070301D110F8013B2A1106D121
:102C200010F8012B03E010F8016B01F8016B5B1E3B
:102C3000F9D12B0705D40023521E0FD401F8013B14
:102C4000FAE710F8013B02F10202A1EB030303E0F3
:102C500013F8015B01F8015B521EF9D5A142D6D3EE
:102C6000002070BD0FB4054B10B503A9044A0298AB
:102C700000F0DAF810BC5DF814FB0000B90500089C
:102C8000000000200FB4084B10B504A902AA039855
:102C900000F0CAF8044602A9002000F068FC2046B3
:102CA00010BC5DF814FB00006F35000802E008C896
:102CB000121F08C1002AFAD170477047002001E0B6
:102CC00001C1121F002AFBD1704700002DE9FF5FF0
:102CD000DDE90220010DDDF838B0024310D10F9874
:102CE00001244CA2012808D0002100980F9BC0E9C4
:102CF0000021C0E90243BDE8FF9F6FEA0B01F4E742
:102D0000A1F2FF3144F6105041430D140F980128F1
:102D10000ED0A5EB0B00401C4FF000043E4EDFF838
:102D2000FC90B0F1000AA04605DACAF1000717E0EE
:102D3000CBF10000F0E7074612E0F80707D0224683
:102D4000334640464946FFF7D6FC80468946224630
:102D5000334610461946FFF7CEFC04460E467F1058
:102D6000002FEAD1DDE90201BAF1000F42464B46DD
:102D700002DAFFF7C0FC01E0FFF72FFD04460E4624
:102D80000022274BFFF70AFF03D84FF0FF30014620
:102D900007E00022234B20463146FFF705FCFFF7F2
:102DA000E4FE102409E0002C0ADB0A220023FFF7CE
:102DB000F5FD019B30321A55641E50EA0102F2D132
:102DC000641C019AC4F1110314440F9A012A09D01A
:102DD0000122084301D15B450FDD4FF0000205F1F0
:102DE00001050DE0084303D1A3EB0B056D1E09E0BF
:102DF00000204FF0110B0F9088E701DA00226D1EC2
:102E0000002A83D000980F99C0E90231C0E900453B
:102E100071E7000030000000000024400000F03F97
:102E20000000F0430000E03F2DE9FF4F95B09B46C6
:102E300089460646002512E2252878D10024761C12
:102E4000F94A2746012105943378203B01FA03F023
:102E5000104202D00443761CF6E730782A2811D0BD
:102E60006FF02F033078A0F13002092A16D8059AA6
:102E700044F0020402EB820203EB42021044761C8F
:102E80000590EFE759F8042B0592002A03DA504227
:102E900044F40054059044F00204761C30782E2847
:102EA00016D116F8010F44F004042A280DD06FF053
:102EB0002F023078A0F13003092B09D807EB8703E4
:102EC00002EB4303C718761CF3E759F8047B761C22
:102ED00030786C280FD006DC4C2817D068280DD02D
:102EE0006A2814D104E0742810D07A280FD10DE09C
:102EF00044F400140AE044F4801401E044F4401463
:102F00007278824202D1761C04F58014761C3078E7
:102F100066280BD013DC582877D009DC002875D040
:102F20004528F6D04628F4D047281AD19FE118E06A
:102F3000632835D0642879D0652812D197E17028AC
:102F400073D008DC6728F1D069286FD06E280DD0C7
:102F50006F2806D1B5E073282CD0752875D0782855
:102F600074D05A46179990476D1C76E1C4F302500D
:102F7000022809D003280DD0D9F8001004280DD05C
:102F80000D6009F1040968E1D9F80010EA17C1E9F8
:102F90000052F6E7D9F800100D80F2E70D70F0E767
:102FA00019F8041B8DF8001000208DF80100EA4686
:102FB000012003E059F804AB4FF0FF3061074FF0F8
:102FC000000102D40DE008F101018846B9420FDA90
:102FD0008045F8DB1AF808100029F4D108E008F160
:102FE000010188468142FADB1AF808100029F6D15F
:102FF00005985B46A0EB080721463846179A00F073
:103000009EFA284400EB080507E04DE02BE10DE0B7
:103010001AF8010B5A4617999047B8F10108F7D2F0
:103020005B4621463846179A14E142E00A22009294
:10303000C4F302524FF0000A022A08D059F804CB18
:10304000032A4FEAEC710AD00DE029E02AE009F1E9
:10305000070121F00702F2E802C1914609E00FFAE8
:103060008CFC4FEAEC71042A03D14FFA8CFC4FEA36
:10307000EC71002907DA0A460021DCF1000C61EB53
:1030800002012D2202E0220504D52B228DF8042016
:10309000012203E0E20701D02022F7E7904653E047
:1030A0000A2102E010220DE010214FF0000A0091E9
:1030B0000BE010224FF0000A44F0040408270092AD
:1030C00003E008224FF0000A0092C4F30252022AE1
:1030D00005D059F804CB0021032A08D009E009F1F2
:1030E000070121F00702F2E802C1914605E01FFA4C
:1030F0008CFC042A01D10CF0FF0C4FF000082207D1
:1031000022D5702827D0009B83F0100353EA0A03CE
:1031100009D15CEA010206D030228DF804208DF836
:10312000050002229046009B83F0080353EA0A033D
:103130000AD15CEA010201D1620705D530228DF87F
:1031400004204FF001087F1E582809D037A00390B3
:103150000EA8029013E040228DF804200122E1E73E
:1031600037A0F4E753466046009AFFF717FC844601
:103170000398825C0298A0F10100029002705CEA60
:103180000100EFD1029806A9A1EB000000F1200A8E
:10319000600702D524F4803400E00127574502DDA2
:1031A000A7EB0A0000E0002000EB0A010090059860
:1031B0004144A0EB01000590E00306D45B462146A4
:1031C000179A059800F0BBF90544002706E001A80E
:1031D0005A46C05D179990476D1C7F1C4745F6DB2A
:1031E000E0030CD55B462146179A059800F0A7F935
:1031F000054404E030205A46179990476D1C009909
:10320000481E00900029F5DC08E0029802995A4611
:103210000078491C0291179990476D1CBAF1000182
:10322000AAF1010AF1DC6BE10928010030313233E7
:1032300034353637383961626364656600000000F2
:1032400030313233343536373839414243444546DC
:103250000000000000F060F9054406F10106307836
:1032600000287FF4E9AD19B02846BDE8F08F620769
:1032700000D4062709F1070222F0070CFCE802231C
:10328000E14603F000485FEA080C02D00FF27C2C04
:103290000DE05FEA045C02D50FF2742C07E05FEAF0
:1032A000C47C02D00FF26C2C01E0AFF2700C4FF036
:1032B000FF3823F00043CDF850C065280CD006DC61
:1032C000452809D046281DD047283ED13EE0662833
:1032D00018D0672839D139E00021112F01DB1120E6
:1032E00000E0781CCDE9000106A90EA8FFF7EEFC6E
:1032F000DDE90F010E9A03910021009207F1010A06
:1033000004914EE04FF000400097CDE9011006A96E
:103310000EA8FFF7DBFCDDE90F0203920E9B11996B
:103320000022DDF80CA00093049219B907F1010105
:1033300000EB010AB7EB0A0004D4C0F1FF3007F13B
:10334000010A0490AAEB0700019046E0012F00DA81
:1033500001270021112F01DD112000E03846CDE9C1
:10336000000106A90EA8FFF7B1FCDDE90F010E9AD6
:103370000391002104910092BA4621070CD40399CD
:10338000514500DA8A46BAF1010F05DD009AAAF12B
:103390000101515C302908D0B84202DA10F1040F63
:1033A00006DA0121CDE9011017E0AAF10101E9E7F0
:1033B000002805DC049901440491AAEB000102E015
:1033C000411C514500DD8A460499A0EB010000F143
:1033D000010001904FF000400290200704D40198B2
:1033E000504501DBCDF8048000208DF84F00029895
:1033F0000DF14F07B0F1004F25D02B200E90029811
:103400004FF0020800280CDA404202902D200E9066
:1034100007E00A210298FFF7ABFA3031029007F873
:10342000011DB8F10001A8F10108F2DC02980028A2
:10343000EFD1791E0E980870307800F0200040F02F
:10344000450007F8020D12A8A0EB070000F10708DD
:103450001498007800B1012000EB0A01019801EBFB
:10346000E07105984144A0EB0100A0F10100059036
:10347000E00306D45B462146179A059800F05FF8F2
:1034800005441498007820B15A461799904705F1E1
:103490000105E00323D55B462146179A059800F005
:1034A0004EF805441BE00498002807DBDDE9030122
:1034B000884203DD0098405C179901E0179930209D
:1034C0005A46904704986D1C401C04900198401E79
:1034D000019004D12E205A46179990476D1CBAF1DD
:1034E0000001AAF1010ADEDC05E017F8010B5A46DB
:1034F000179990476D1CB8F10001A8F10108F4DCA0
:103500005B462146179A0598A4E600002D000000AE
:103510002B000000200000002DE9F04104460025AA
:103520001E461746880405D406E039462020B047D9
:1035300005F10105641EF8D52846BDE8F0812DE9A6
:10354000F041044600251E469046C80301D53027A9
:1035500000E02027880405D506E041463846B047FC
:1035600005F10105641EF8D52846BDE8F0810A681A
:10357000531C0B601070704700A24A0400A24A045A
:1035800000A24A040051250200A24A04AC350008FA
:103590000000002078040000082C0008C436000851
:1035A0007804002020020000BC2C00085116060AF6
:1035B000FE0AC612E012F062F84EFE7DBBC7EF01B4
:1035C000053EC7BB7DFE300D080CFEFE0C082060DA
:1035D000FEFE60208F7848FE82BABA0309135EAA05
:1035E0000101017E6CFEFF0301CBFFFF0F39BBEC35
:1035F000C0C0C0271918F92701392975990B6CFF2C
:10360000FF0C01491A0C22E1E1E12701396C0F1F7F
:103610001801FB1F0F0F092E27013925E2928A8618
:10362000167C8282827C12FE258292AAC65BC0C072
:103630001111AD020202FE10190D012B300A24A453
:103640002E24E4242EA424000A56F84A4C48F848B4
:103650004C4AF81CC0201001AB20C00A11300A12DD
:103660000A07027F02070A121E0B0A0A0A7F0402D7
:10367000560B980A1F2040404050205F800A1130AE
:103680000EFE8242A29E8A82868AB26202FE1C7F5F
:1036900040400319012909211809808080BFA5A590
:1036A000A53F041ABF0C1178087F24243F24247FEF
:1036B0000801212D0102030404300906070809024C
:0436C00004060800F4
:0400000508000147A7
:00000001FF
